:020000040800F2
:10000000C02500205D210008651C0008492100086A
:10001000492100084921000849210008000000008A
:100020000000000000000000000000001522000891
:100030004921000800000000B52100084D540008C7
:1000400091230008912300089123000891230008C0
:1000500091230008912300089123000891230008B0
:1000600091230008912300089123000891230008A0
:100070009123000891230008912300089123000890
:100080009123000891230008912300089123000880
:100090009123000891230008912300089123000870
:1000A0009123000891230008912300089123000860
:1000B0009123000891230008912300089123000850
:1000C0009123000891230008912300089123000840
:1000D0009123000891230008912300089123000830
:1000E0009123000891230008912300089123000820
:1000F0009123000891230008912300089123000810
:1001000091230008912300089123000891230008FF
:1001100091230008912300089123000891230008EF
:1001200091230008912300089123000891230008DF
:1001300091230008912300089123000891230008CF
:1001400091230008912300089123000891230008BF
:1001500091230008912300089123000891230008AF
:10016000912300089123000891230008912300089F
:10017000912300089123000891230008912300088F
:10018000912300089123000891230008912300087F
:0401900091230008AF
:1001940053B94AB9002908BF00281CBF4FF0FF31EA
:1001A4004FF0FF3000F00CB8ADF1080C6DE904CE4F
:1001B40000F010F8DDF804E0DDE9022304B0704734
:1001C400704700BF034613F8012B002AFBD1181A0D
:1001D400013870472DE9F04786468C460846089E4C
:1001E400154674461946002B40F0C2808542B2FA87
:1001F40082F245D94AB1C2F1200300FA02FC2EFA78
:1002040003F3954043EA0C0C94404FEA154EA8B210
:10021400BCFBFEF8230C0EFB18CC08FB00F943EAE8
:100224000C43994528D9EB1808F1FF3704D29945B6
:1002340002D9A8F102072B44A3EB0903A4B2B3FB30
:10024400FEFC0EFB1C330CFB00F044EA0344A0420A
:1002540014D92C190CF1FF3304D2A04202D9ACF109
:1002640002032C44241A43EA07401EB1D44000235D
:1002740034607360BDE8F0874746DDE76346F1E725
:1002840092BB431B01214FEA154EAFB2B3FBFEFCF8
:10029400200C0EFB1C330CFB07F840EA0343984583
:1002A40062D9EB180CF1FF3004D2984502D9ACF1B5
:1002B40002002B44A3EB0803A4B2B3FBFEFC0EFB29
:1002C4001C330CFB07F744EA0344A7424ED92C190C
:1002D4000CF1FF3304D2A74202D9ACF102032C443F
:1002E400E41B43EA0040C0E7C2F1200320FA03F113
:1002F400954090402EFA03F303434FEA154EAFB2F4
:10030400B1FBFEFC0EFB1C10190C0CFB07F841EAB8
:100314000041884504FA02F422D969180CF1FF302F
:1003240004D2884502D9ACF102002944A1EB0801AA
:100334009BB2B1FBFEFC0EFB1C110CFB07F743EA5E
:1003440001439F420ED9EB180CF1FF3104D29F42B6
:1003540002D9ACF102012B44DB1B41EA004192E7D4
:100364006046E3E76146F7E76046A3E76346B7E71D
:10037400834206D916B9002108467BE7C6E900E0A6
:10038400F9E7B3FA83F78FB9834201D3724508D8EA
:10039400BEEB020460EB030301209C461EB900215E
:1003A40068E73846FAE7C6E9004CF8E7C7F1200CDD
:1003B400BB4022FA0CF41C432EFA0CF120FA0CF385
:1003C400B84001434FEA14490EFA07F5B3FBF9F8B4
:1003D4001FFA84FE09FB18300B0C08FB0EFA43EAE3
:1003E40000439A4502FA07F240D9E31808F1FF30B6
:1003F40004D29A4502D9A8F102002344A3EB0A03CC
:1004040089B2B3FBF9F809FB183308FB0EFE41EA85
:1004140003418E452CD9611808F1FF3304D28E456F
:1004240002D9A8F10203214443EA0040A0FB029848
:10043400A1EB0E014145CE46434602D306D14D45BC
:1004440004D2B9EB020E68EB04030138002EA6D0E7
:10045400B5EB0E0261EB030101FA0CFC22FA07F37F
:100464004CEA0303F940C6E9003198E74046C5E782
:100474004346D9E77FB50E4B0E4D0FCB6C4684E84F
:100484000F00AE682146336828469847041E08DAF0
:10049400094A0A482346012107F0D6FB204604B046
:1004A40070BD336906490022284698470024F5E7C1
:1004B4003C9A00088C9600080A9F0008EC990008F2
:1004C400790600082DE98048DFF85091DFF850B133
:1004D4008BB002AF53484FF0FF324FF0FF3307F1B8
:1004E4000C0105F013FB05460028F3D1FC68A36852
:1004F400F02B0FD9F02200924B484C4A012107F00F
:10050400ADFBF86808F0D3FE00214FF47A7008F0D0
:10051400C9FCDFE7DBF80020217809F8221009EB99
:100524008201608848800132514201F03F0102F0AB
:100534003F02DFF8FC8058BF4A42204603F109011C
:10054400CBF8002006F019FED8F808A03860DAF8D5
:1005540010302A46294640469847364B0FCB07F1C0
:10056400100C8CE80F006146DAF8003040469847DA
:10057400031E0DDBA3680B3318467B6008F09EFE58
:10058400064658B92C4A2848012107F054FBB8E71D
:100594002A4A2548012107F057FBB2E7A268214601
:1005A400093208F0F4FEA2683B6832443146A2F8EE
:1005B4000930DAF804307A68404698478046304675
:1005C40008F075FEB8F1000F0BDA1D4A16484346D1
:1005D400012107F039FBFFF74DFF002891DA194A92
:1005E400D1E794F800C06078618823796C468CB0B8
:1005F40002AADFF854E053623B6893620723C2E91E
:1006040005ECC2E9070142F8103F07482B464FF4B6
:10061400635101F005F8A546DDE700BF560E002042
:10062400F009002014020020EC990008259F00081E
:100634008C9600084C9A00085D9F0008429F0008B1
:100644007B9F0008D59F0008909F000808B50648C6
:1006540008F0DAFA30B9054A0548BDE80840012136
:1006640007F0E9BAFFF72EFF8C960008F99F0008FF
:10067400EC9900082DE9F0410A2A84B00C4602AF37
:100684001646984609D84F48134602214E4A07F0A9
:10069400DBFA0837BD46BDE8F081911E2046655A55
:1006A40006F06BFDA84207D0484A00902B46454807
:1006B400022107F0D3FAECE7A56805F10B03B34276
:1006C40003D0434A00933346F1E7424B94F800C009
:1006D4006088002219461E78664502D15E888642EB
:1006E400D7D00132402A03F10403F4D13A4E3268E0
:1006F40001F822C001EB82010132534203F03F03AF
:1007040002F03F0258BF5A42488032606E468CB0B5
:100714006178237902AADFF8C4E0C2E9093897F9BD
:100724002030D3620823C2E905ECC2E9071042F87D
:10073400103F0023234844F2C00100F071FF6378A6
:10074400012BB5461AD1264A1E48032107F07CFA2C
:1007540088B002AA234B5361234B93614FF4007377
:1007640093832905214B42F8103F41F4E651154883
:1007740004F10C0300F054FFB5468AE72379012BFA
:1007840087D905F1090008F099FD0346786028B976
:10079400174A0C48012107F04EFA7AE794E803005F
:1007A4000139186019719D602A4604F10C0103F1A6
:1007B4000C0008F0ECFD00220023391D0D4805F063
:1007C40047F966E7EC9900080FA0000835A0000877
:1007D40079A00008560E0020F0090020F4A00008BB
:1007E400A4A00008BDA80008C4A0000803000001DC
:1007F400CCA0000814020020B0B58AB008AF334C76
:10080400204608F001FA0346A8B921686C4622463E
:1008140088B02F48C4E905014FF40071A1832D4924
:1008240042F8101F2C484FF4E25100F0F9FEA5469F
:100834000837BD46B0BDFFF71DFE0028F8DB274A88
:1008440025480123032107F0FFF900240025002394
:100854000522CDE90323CDE901330093CDE9064513
:100864001F4B204920484FF4806205F0A1FB1F492B
:1008740008F066FAFC2008F021FD786028B91C4ACB
:100884001548012107F0D7F9D2E7012303707A68EC
:100894000421517017490A88D018088079684A8061
:1008A400786808220271F021134A0C3006F0DCF952
:1008B4007B689860114822462B46391D05F0C8F81C
:1008C400002144F6206008F0EDFAF9E78C96000860
:1008D4003BA1000803000001EC9900084FA10008A7
:1008E4005106000880100020600200206EA100085C
:1008F4007EA10008540E0020A4A1000814020020C8
:100904002DE9F04F91B08407009302F004030293A1
:10091400C2F3C20303F10103DDF8688003920546C4
:100924000E46059340F0BA81041D30B1072909D859
:100934006FF01B0011B0BDE8F08F01F007063444DE
:10094400C6F10806009B4FF00009591E4FF0040A37
:100954004FF0FF330193CDF810904F46CB465346EA
:100964000DB1009A22600598002800F3E8809848A9
:10097400009A824203D397488242C0F0E080039AEF
:10098400A4EB050E92074FEA9E0000F103810F2F9E
:1009940000F2B180002D00F0058107F140020DEB5B
:1009A400020C019A0CF8200C0CF8102C049801305D
:1009B4000490E7E07A285DD84B280ED8472859D808
:1009C40029282DD8252852D054D820287AD0233845
:1009D400D0F1000B4BEB000B74E04C382E2849D8B7
:1009E400DFE800F0704848484848484848484848C4
:1009F4004B484848484848484859484B4B59595926
:100A0400704B6D487048184B184848827F4B4848D3
:100A14004B487F0000204FF0000B4FF0040A38E0F1
:100A24002A38C0B2012202FA00F010EA0E0F49D1AE
:100A340010F0625C2FD110EA020B43D06046013CF7
:100A44005444B4FBFAF40AFB04F4002D61D0A3EB84
:100A5400050CA444B4453FF66BAF002868D1042BC1
:100A640047D158F8043B2360043404232AE0019A54
:100A7400013A01924FF0000B24E011F8010C6C28AC
:100A840034D111F8023C00206C2B8346C5D14FF0C1
:100A9400080A5346D3E708F1070828F00708073483
:100AA400F8E802AB24F0070435B106982044B042BC
:100AB4003FF63EAFC4E900AB08344FF0000B4FF0F3
:100AC400080A534611F8010F002878D0BBF1000F33
:100AD4007FF470AF2528F5D1019B013301934FF0CA
:100AE400010B4FF0040AECE7584694E700208346D4
:100AF400A5E7082B02D06FF015001BE708F10708E3
:100B040028F00708F8E80223C4E90023083408237E
:100B1400D8E768B9042B02D108F10408A4E7082B2C
:100B2400E9D108F1070828F0070808F10808EDE7FB
:100B3400059A013A059258F8042B009210E7039A9B
:100B4400900720D5A4EB050E4FEA9E004FF0010C50
:100B5400BEF5007FCFD20F2FCDD8F5B107F14002FB
:100B64000DEB020EC0B2019A0EF8200C0EF8102CF8
:100B7400BCF1000F3FF41AAF60F07F000EF8200CB8
:100B840009F101090137C5F10802043406924FF650
:100B9400DA7E97E74FF0000CDAE7BCF1000F01D0E2
:100BA4000136EFE7029802360028EBD10098CDE930
:100BB4000631FFF707FBDDE906310644E2E7631B74
:100BC400B3F5806F97D23DB9A6F10804E018B1E6F9
:100BD400A8940008B8AD0008029A28609B082B70FE
:100BE4009DF81030C2B1EB7085F80290B9F1000F96
:100BF40005D008A80022C5F1010C97420ED1C5F119
:100C040001030DF120084FF0000A01930DF1300BA0
:100C1400574512D1601B8DE66B70E5E710F8013B78
:100C2400190608D50CEB040EB64503F07F033FF616
:100C34007FAE04F8013B0132DFE7B9F1000F03D0C6
:100C440098F90020002A17DB029BD3B11AF80B2075
:100C540004F8012B0022019B18191044B0423FF6FE
:100C640067AE98F8000004F8010B0099039220463F
:100C740008F08DFB039A14440AF1010A08F10108F3
:100C8400C6E798F8002055F822300093029B45F8F7
:100C940022300098FFF796FA421CDCE76FF00D0053
:100CA40048E600BF2DE9F04F97B000AF90F802A0DE
:100CB400D7F880B03B62CBF3C0030446FA62BB6151
:100CC400894641B9457800780AEB800020444D45B7
:100CD40017D8A0EB0409E378FB61BAF1000F02D046
:100CE4001BF0010F16D1FB6953BBFB6A1BB13A6AB7
:100CF4004946204698474D4628465C37BD46BDE8E0
:100D0400F08F461C3046FFF75DFA0130304409F19C
:100D14000109DCE7237862687A62FA6A99007961EA
:100D240004EB8301002A40F000814D460E4601EB9E
:100D34000A094FF000084E454CD101EB0A0610E0B9
:100D44001BF0020FD1D023789A007A6162687A622C
:100D5400FA6A04EB8301002A77D14D4601EB0A06B7
:100D640090461BF0050F0CBF02230123FB62FB69B5
:100D740006EB430A0BF00203BB625645BCD016F8DF
:100D8400021B16F8013C54F82390994B994502D361
:100D9400984B994536D3BB69002B40D0786A06F04E
:100DA40002FC00283BD0E9468AB06A46924B536164
:100DB4007B6AC2E906314FF4007313848F4B42F807
:100DC400103F8F4800234FF4125100F029FC023DDC
:100DD400CD46D2E716F8013BF96254F82300FFF739
:100DE400F1F9D7F88430F96A01304BB1D7F888307B
:100DF40098453EBFD7F8843023F8180008F101085D
:100E0400054498E7BB6923B1786A06F0CCFB002857
:100E1400C9D11BF0010F05D1FB6AED1AADE7BB6A1E
:100E2400002BAAD04846FFF7CDF9D7F8843053B148
:100E3400D7F8883098453FBFD7F88420431C22F860
:100E4400183008F10108054497E7BAF1000F72D091
:100E54001BF0040672D0D046002607F14800524623
:100E64003B61B96208F093FAB96A3B6901EB0A0283
:100E7400BA62FA69F9695200FA60BA6A02EB41028D
:100E84003A610BF00202BA603A69B96A8A4257D1F0
:100E940062787A621BF0020F32440CBF4FEA5801A9
:100EA40000211BF0010FD2B240F09F801BF0040F11
:100EB40014BF40460020BB616270A070E1703A6AC2
:100EC4007969FB6A20469847051EFFF615AFBB6992
:100ED40023707B6A6370FB69E37041463A6AFB6A7C
:100EE40084F802A007F148009847B0F10008C0F266
:100EF400BB807B693A6AA9EB0A01C91AFB68C91A63
:100F0400D7E90A0398470028C0F2B080A84408EB48
:100F140000054FF0000B07F1380AB34572D30021E6
:100F24003A6AFB6A08469847E6E656464FF00008D8
:100F340007F1380093E75646D04697E7B04695E761
:100F4400BA6A12F8021BBA6212F8015C284A54F811
:100F54002500904202D3274A90421ED3BA6932B187
:100F6400786A7B6006F01FFB7B6800288CD1BA6826
:100F740002BB08F1280207F1300C08F10100944487
:100F840007F1580252FA80F008F102080CF8101C1C
:100F94005FFA88F800F8105C76E7BA693AB1786AC3
:100FA4007B6006F000FB7B6800287FF46DAF1BF0CC
:100FB400010F09D006F1280207F13000711C161840
:100FC40006F8205CCEB25FE71BF0040F3FF45CAF81
:100FD40008F1280207F1300008F1010102EB0008D2
:100FE40008F8105C5FFA81F84EE7002063E700BF61
:100FF400A8940008B8AD0008C5A1000804000001C9
:10100400CC9900081BF80A3087F8373054F823903D
:10101400D7F884302BB3D7F888309B4521D2D7F842
:10102400843033F81B803A6AFB6A012107F13700E8
:10103400984700281ADB0544B8F1000F06D148464A
:10104400FFF7C0F800F101081FFA88F83A6AFB6A52
:10105400414648469847002808DB05440BF1010B3C
:101064005BE74FF00008DEE7454645E6054643E604
:10107400014B1860704700BF0000002080B5054692
:101084000E461746984605F0E5F9034608F000FABF
:10109400DFF81890044649F8003042463046394695
:1010A400A84754F8090001F06DF800BF08000000DB
:1010B400034A536823F0020353600020704700BFC3
:1010C400002004E0084B1A6842F480721A601A681F
:1010D40042F400721A601A6842F480621A60034B88
:1010E400034A1A60704700BF003C02403C010020E4
:1010F4000024F4002DE9F047DFF858800446074641
:101104004FF0010914B93846BDE8F08794FAA4F504
:10111400B5FA85F509FA05F32E0108EB05156FEA12
:10112400030A24EA03042B7B002BEBD058F8063087
:101134001B694BB94644042273682846196807EAB8
:101144000A0706F009FDDDE7284698470028D9D1AB
:10115400F0E700BF2C9A000830B51049104889B058
:10116400002207F05FFF0F4D0F4900220023CDE955
:10117400062300240E23CDE90334CDE901440B4BAF
:1011840000944FF44072284604F012FF08492846A0
:1011940007F0D6FD204609B030BD00BFB9110008E4
:1011A40068070020E0020020C0140020C9140008D1
:1011B40079A20008014804F00BBD00BF44020020DE
:1011C4002DE9F84F804624480F4606F09DFC06465C
:1011D400002838D000252846BDE8F88FA4EB0B037F
:1011E40062681B1101331371237B83B12368DB68AD
:1011F4000BB120469847636883F8069023681B69FF
:10120400CBB9636804221968204606F0A5FC0136B0
:1012140010345445E2D3B8F1000FDCD0002DD9D0FE
:101224002846FFF767FF0546002FF7D0002164200A
:1012340007F038FEF2E7204698470028E1D009FA83
:1012440006F31D43E3E7054CDFF814A00546A34667
:101254004FF00109DDE700BF040A00202C9A0008C2
:101264003C9A0008014B53F820007047989A0008F4
:1012740008B5034608462BB1044A136000F066FC27
:10128400002008BD6FF01500FBE700BF040000203C
:1012940010B5044C237813B9034804F099FC0123D6
:1012A400237010BD560F00204402002010B50446E0
:1012B4000B4806F029FC5CB1BFF35B8F094B53E884
:1012C400001F013943E80012002AF8D1BFF35B8FF5
:1012D400054807F0B3FE0548BDE8104004F078BCAB
:1012E400FC090020000A00206807002044020020B6
:1012F4000020064BBFF35B8F014653E8000F43E821
:101304000012002AF9D1BFF35B8F7047FC0900205B
:1013140070B5FFF7EDFF084C084E0546B44200D304
:1013240070BD63685B792BB123685B6813B1294690
:10133400204698471034F1E72C9A00083C9A00089C
:1013440010B5044C0449204606F064FA034B1C60B3
:1013540010BD00BF80010020849A0008F409002019
:10136400084A094808B500231370084A1360084A5C
:101374004FF47A711360FFF77BFFBDE80840FFF775
:10138400DFBF00BF570F0020277B0008FC090020A7
:10139400000A0020014600220148002306F05BBA3F
:1013A40080010020014806F0F4BA00BF800100204B
:1013B400024B0146186806F040BB00BFF409002048
:1013C400014806F075BB00BF8001002070B5264BB4
:1013D4001878002846D0FFF7E5FF054600283ED1DF
:1013E400224B234C1B68002B12DD07F0D4FD0A228C
:1013F4000023FEF7CDFED4E90032C01A40F2E933EF
:1014040061EB0201984271F1000101D3FFF780FF03
:10141400D4E9003213F57A7342F10002C4E90032D0
:10142400BDE87040FFF7CCBF63685B7923B12368E4
:1014340029461B68204698471034B442F4D3284602
:10144400FFF7B6FFBFF35B8F0A4B53E8001F013968
:1014540043E80012002AF8D1BFF35B8FC0E7064CC3
:10146400064EEAE770BD00BF560F0020FC090020BD
:1014740060070020000A00202C9A00083C9A00080B
:1014840070B50D4D297861B90120FFF799FE0B4C19
:101494000B4EB44206D3FFF799FF0028FBD101237A
:1014A4002B7070BD63685B791BB1236820469B6811
:1014B40098471034EDE700BF570F00202C9A00081E
:1014C4003C9A000800212DE9F0470846FFF778FE12
:1014D400044658B34FF4FA784FF0000907F0D8FFE8
:1014E4001B4B1C4A1B58136033B11B4B1B68092B45
:1014F40002DD1A4804F06CFB194FDFF860A00025E8
:1015040044B12046FFF7F6FD044618B94FF0FF3802
:101514004FF0FF39FFF75AFF064628B9B5B94246DE
:101524004B46504604F08EFB3546E9E74FF0FF3852
:101534004FF0FF39D2E72B689B691BB1002211469B
:10154400284698471035BD42F5D3E8E7054DFAE73C
:1015540008000000F8090020000A002044020020CE
:101564003C9A00082C9A000813B5184806F0CCFAE7
:10157400174B1B7873B1EFF31184102383F3128894
:10158400BFF36F8FFFF722FF84F31188BFF36F8FD0
:1015940002B010BD0F4B1B68002BF9D050B90022CC
:1015A4000023CDE900230C4842F21072002305F019
:1015B40031FAEDE70928EBD1074807F03FFD07486A
:1015C40002B0BDE8104004F003BB00BF000A0020D5
:1015D400570F0020F809002068070020440200206B
:1015E40010B5064B1B68044698472146A060044882
:1015F40006F0B0F9BDE81040FFF7B6BF04000020C4
:1016040080010020044A054B9B1AB1EBD30F34BF71
:1016140052F8310000207047CC9900082C9A000839
:101624002DE9F04F8FB004AFC1F34A28B8600D46DE
:1016340091467B600C0DB8F1000F63D0002607F1D2
:1016440014034FF0040B4FF00A0AC7F80C80C7E9E3
:1016540007667E620193CDF808B0CDF800A007F1CB
:101664001C03F96832464846FFF71CFBB0F5006FCF
:1016740003461CD36C468AB0D9F8041004AB264840
:10168400C3E9050140F2FF71D9611A464FF40071B4
:101694001984224B42F8103F214833464FF412512B
:1016A400FFF7BEFFA5462C37BD46BDE8F08FC0F35B
:1016B4000A0804F11700184420F0070080083B6072
:1016C400FFF768FE68F35325044690B13B68154A5A
:1016D400C7E9083600F1100107F11403F961CDE9F7
:1016E40000A3CDF808B0F96807F11C034846FFF7DA
:1016F400D9FA68F353257B68B9682A46204606F070
:101704004AFAD0E704F1170020F007008008FFF739
:1017140041FE0446EDE700BF8EA20008040000016C
:10172400D49900086F7B00082DE9F04F87B0DDE9FC
:101734001279DDE9105A0446039193469846BFB1E5
:10174400CDF800903B46524610210020CDF814906D
:10175400FFF7D6F8B0F5006F06460AD3184A1948C1
:1017640040F2FF73022107B0BDE8F04F06F06CBAF7
:101774003E4605F11700304420F0070004F007044A
:101784008008FFF707FE0BF0070BE40044EA8B1414
:1017940044EA462444EA0554054640B13FB1CDF835
:1017A40000903B46524631461030FFF7A9F80399A2
:1017B40043462246284607B0BDE8F04F06F0EBB991
:1017C400CDA20008D4990008406820B1034BC01A88
:1017D40040F3CF0070474FF0FF307047CC990008BA
:1017E4000EB403B503AB014653F8042B044801932C
:1017F40000F052FF02B05DF804EB03B0704700BF85
:10180400AF7C0008CA0605D48B064CBF02490349C5
:10181400FFF7E6BF704700BF06A3000805A3000852
:101824002DE9F04F89B09B46149B06939DF84CA07C
:10183400159B0593169B179E049304460D469046EC
:10184400BAF1000F00F09D8006F48073079306F050
:1018540081F906F00209024600283ED0914920464B
:10186400FFF7BEFF0746B9F1000F08D016F0440F8A
:1018740035D18D492A462046FFF7B2FF074406F0CA
:10188400010353B1894B8A4953F82A20894B2046D6
:10189400002A08BF1A46FFF7A3FF06F48073002B43
:1018A40049D006F00803002B63D1B8F1000F66D0CD
:1018B400814942462046FFF793FF0546069B3D4477
:1018C400002B6DD1049B002B73D1F30700F1E4804E
:1018D40031462046FFF796FFD8E00746C3E7774B2B
:1018E40018680028CAD0764B4FF47A791B68B5FB88
:1018F400F3F54FF46163B5FBF0F100FB115509FBFF
:1019040005F54FF03C0CB1FBF3F203FB1211B5FBF0
:10191400F0FEB1FBFCF300FB1E550CFB131109FB9D
:1019240005F50091B5FBF0F56649CDE901E52046E2
:10193400FFF756FFA2E706F00803EBB1624B6349D9
:1019440053F82A202046FFF74BFF0546B8F1000F55
:1019540005D0594942462046FFF742FF0544BBF1F2
:10196400000FABD05A495A462046FFF739FF0544C9
:10197400A4E74FF0000BE1E706F00805E6E745466B
:101984009CE7BBF1010F069B06D1002B64D1049B9D
:10199400002B7BD000250CE0002BF8D04D485CE0F8
:1019A4004D48069B4D49224605F0CCFD049B002B77
:1019B40068D0DFF82C81DFF82C91049F3146102F7A
:1019C400204628BF1027FFF71DFF4FF0000B5D4591
:1019D40045DC059B49461A782046FFF701FF4FF086
:1019E400010B1BF0070F03D141462046FFF7F8FE19
:1019F4005F453BD9059B494613F80B202046FFF76A
:101A0400EFFE0BF1010BBBF1100FEAD13649204672
:101A14004FF0000BFFF7E4FE5A46059B9A5CA2F1D7
:101A240020015F2928BF2E2230492046FFF7D8FE27
:101A34000BF1010BBBF1100F1DD01BF0070F03D1ED
:101A440041462046FFF7CCFE5F455A46E5D841465D
:101A54002046FFF7C5FEEBE71F485546A1E7414680
:101A64002046FFF7BDFE0BF1010BB0E720492046ED
:101A7400FFF7B6FEC5E7059B3B440593049BDB1BC0
:101A840004939AD1BAF1000F7FF41FAF204609B036
:101A9400BDE8F04F06F0FCB8064A05492046FFF7BA
:101AA4009FFE15E70DA3000811A30008A89A0008DB
:101AB400BDA8000808A3000836A300080C0A0020EB
:101AC400080A00201AA30008BC9A00083AA30008D8
:101AD40040A30008E57C0008AF7C00089D260008B0
:101AE4004DA3000845A300084FA3000851A3000814
:101AF4004BA3000873B542F20F738B4228BF0B4609
:101B040005680F4A04460521684605F0ADF8636888
:101B14000C495B6806460B22284606F0ABF863685E
:101B24003246694628465B6806F0A4F863680649AD
:101B34005B681B22284606F09DF802B070BD00BF0A
:101B4400229F000870A3000854A30008074A00213C
:101B54000123904206D8064A01B901231360054BBC
:101B64001860704740085B000121F2E740420F0013
:101B7400080A00200C0A0020F8B5074F0D46044659
:101B84004618B44201D12846F8BD14F8011BBB68BD
:101B940001485B689847F4E73C960008014B0360F2
:101BA40000207047049B00082DE9F047064600AF6B
:101BB4000C46002936D0E9468AB0D1E90012A36860
:101BC4006D462148A8464FF0050AC5E90501C5E957
:101BD400072348F810AF1D48424600234FF4215113
:101BE400FFF71EFDCD46D4E903126369AD461848DC
:101BF400C5F810A0C5E90501C5E90723134800236A
:101C040042464FF42151FFF70BFDCD46E369114ADB
:101C14000E48012106F018F8A3690F4A0B48012168
:101C240006F012F8012E07D1EFF305830B4A07489B
:101C3400103B314606F008F82146304603F06EFDAD
:101C4400BD46BDE8F08700BFB6A30008FC990008B4
:101C5400E5A3000814A4000823A4000851A4000864
:101C640008B5034B1B689847BDE8084000F026B848
:101C74001000002030BFFFF7FDBF00BF2DE9F04189
:101C84000B4EDFF8308006EB0807CC1B05463246C6
:101C94000949204607F07BFBA01942460021083C75
:101CA40007F083FB6C6707F10800BDE8F08100BF13
:101CB40000000000040000003C9A0008054B5A692B
:101CC4009B689A421FBF044A536843F08053536091
:101CD400704700BF1C0E002000ED00E070B5294CD9
:101CE40006460D462848294906F07AF8A36AD9041D
:101CF4003CD52548264906F073F81720A36A1A052F
:101D040004D52148234906F06BF818201D4CA36A1A
:101D14009B0512D51C48204906F062F8A36BA26A01
:101D2400100409D51D4A1848012105F08DFF1EB184
:101D3400A36A23F40043A3621920124CA36A590531
:101D440004D51148164906F04BF81A20A36ADA059F
:101D54000ED50D48134906F043F81B20094A936A2F
:101D640043F47F43936200232B7070BD1620C5E7B4
:101D7400A36A9B04F2D504480B4906F031F81C20F1
:101D8400ECE700BF00ED00E0FC99000864A4000843
:101D94007AA400088BA400089EA40008B7A4000835
:101DA400CCA40008E7A40008FFA4000810B5204C48
:101DB4002049214806F014F8A36A990136D51E4833
:101DC4001E4906F00DF81E20A36ADA0104D51A484C
:101DD4001B4906F005F81F20154CA36A1B0304D504
:101DE4001548184905F0FCFF2120A36A590304D5BE
:101DF4001148154905F0F4FF22200D4CA36A9A03FB
:101E040004D50D48114905F0EBFF2320A36ADB0339
:101E140004D509480E4905F0E3FF2420044A936AD7
:101E24006FEA03436FEA1343936210BD1D20CBE7AF
:101E340000ED00E02EA50008FC99000846A5000866
:101E440059A5000873A5000891A50008B6A50008C7
:101E5400D0A500082DE9F843364D8046894636481A
:101E64003649174605F0BCFFAB6ADE0627D5344970
:101E7400314805F0B5FF1124AB6A1D0704D531497B
:101E84002D4805F0ADFF12242A4DAB6A980718D5EA
:101E94002D49294805F0A4FF6E6BAB6A190646D597
:101EA4002A4A25483346012105F0CEFEB9F1000F38
:101EB40003D0AB6A23F08003AB62132403E0102445
:101EC400DAE76FF015061B4DAB6ADA0704D5204933
:101ED400194805F085FF1424AB6A9B0604D51D49F7
:101EE400154805F07DFF1524124B9A6AD50602D4D5
:101EF4009A6A90070AD55B68190507D541463046AA
:101F040000F0FEF910B180F309880224094B9A6AA3
:101F1400920642BF5A6A22F400525A629A6A42F006
:101F2400FF029A6200233B702046BDE8F8836FF0FD
:101F34001506C2E700ED00E0FC990008FBA50008C7
:101F440011A600088BA4000844A600085CA600089B
:101F540072A60008FFA400082DE9F041664B8AB080
:101F6400D3F8048000AF0446C8F30805002686F3BE
:101F74001188BFF36F8F02F07F43B3F17F4F07D116
:101F840002F00C03082B12D15C495D4805F028FFD0
:101F9400002634460023FB71EB1E092B00F28A80D5
:101FA400DFE803F00A80837C8888888888861007A5
:101FB4004CBF0C460126EDE7524951484E4D05F001
:101FC4000FFF0023FB71EB6A9A0705D54E494C4875
:101FD40005F006FF002332E0EB6A002B01DA4B49DF
:101FE400F5E7EB6A5B00F5D54949454805F0F8FE8D
:101FF4006B69A26943F480736B61BFF34F8FBFF3C6
:102004006F8F6B6932F8022C23F480736B61BFF31A
:102014004F8FBFF36F8F4DF602739A4208D0AB6AAD
:10202400DBB273B3FA1D01212046FFF713FF37E03B
:102034002368384A3248012105F006FE2368FA79FC
:10204400DAB907F1080504F1200C206861682A4612
:1020540003C2083464451546F7D17A6A002E45D088
:10206400C2F3080121B96FEA52226FEA42227A626E
:1020740007F108011846FFF797FD2837BD46BDE86C
:10208400F081AB6A13F47F4F04D0F91D0120FFF7F0
:1020940025FE05E0AB6AB3F5803F9BD3FFF786FED0
:1020A4000346CCE7FA1D0021BEE7F91D0020EEE748
:1020B40019498CE7194A1A4B18F4F87FE8468AB094
:1020C40018BF13466A461749C2E905134FF4007353
:1020D4001384103D144BD56142F8103F0848002387
:1020E4004FF41151FFF79CFAC54673E722F4FF72CF
:1020F40022F00102BBE700BF00ED00E0BFA600082C
:10210400FC990008EAA6000801A7000822A7000815
:1021140030A700084FA700086BA70008A6A6000870
:1021240091A600088FA7000804000001044B5A6917
:1021340042F010025A615A6922F008025A6170474B
:1021440000ED00E0EFF30880EFF3098101B572467A
:10215400FFF702FF01BD00BF102080F3118808487B
:102164004FF40461401880F30988EFF314800221CE
:10217400084380F31488BFF36F8F00F081F80000E8
:1021840000180020084B9B6883420BD1EFF30583B2
:1021940043B1064B5A6842F080525A605A6A22F49C
:1021A40000425A6204F05CB91C0E002000ED00E00D
:1021B40014498A684FF030001044EFF3098C80E82A
:1021C400F01F102080F31288BFF36F8F0E4F4FF073
:1021D40000664A698A603E60506F0C4C2060906FC4
:1021E4000023936780F3118804B5104600F0ECF8DF
:1021F400BDE8044002F1300090E8F01F8CF3098838
:10220400704700001C0E002004ED00E03C0A002092
:102214001EF0040F0CBFEFF30880EFF3098081690F
:1022240011F8021C0229FFD001B5724605F0D4FD55
:1022340001BD00BF40B2002807DB044A4109012365
:1022440000F01F00834042F82130704700E100E0B5
:1022540040B20028A8BF00F1604001F10101B8BFFD
:10226400064B4FEA0111ACBF00F5614000F00F00CE
:10227400C9B2B4BF195480F80013704714ED00E0DC
:102284000F4A08B50F4B22F07F029A60BFF34F8FBD
:10229400BFF36F8FD3F8882022F47002C3F888202C
:1022A400EFF3148323F0040383F31488BFF36F8FD5
:1022B40003F020FB04F008FA00F05CF803F05EFB86
:1022C4000000000800ED00E042F8203C009B42F8CA
:1022D4001C3C0A49019B42F8183C029B42F8143CFE
:1022E40021F001014FF0807342F8043C42F8081CCD
:1022F4000023203A02658367704700BF81100008FD
:10230400094A0346906870B113F1160F406E05D068
:10231400A0F140029A4205D8834203D2814228BFE9
:1023240000207047002070471C0E002008B5154699
:10233400094A0A4B9060426F1A600E4600F044F856
:102344002C4686F309880020054B98472046002137
:1023540000220023034C20471C0E00203C0A0020CE
:10236400F57D000881100008014B10221A617047A6
:1023740000ED00E0044800231021C2180133552B5E
:1023840082F80013F9D1704700E100E008B5EFF3DB
:102394000583064A103B02EBC30152F83300496837
:1023A4008847BDE80840FFF789BC00BFA096000835
:1023B400024B034A0348012100F08AB8008001203F
:1023C40000000020049B0008426E054B403A1A604E
:1023D400044A4021C3E901121846012100F082B8E1
:1023E400400A002000000B1508B503461048D0F839
:1023F4009020C2F30722013A934207D90D480E4AAE
:10240400012105F021FC6FF0150008BDC0F89830DB
:102414000A6822F01F021A4342F01002C0F89C20FE
:102424008A6842F00102C0F8A0201846EDE700BF18
:1024340000ED00E0F4990008A6A70008F0B50E46E8
:1024440085B01F4604460025B5420DDA606810B316
:1024540097B1431E18420AD0104A11482B46012155
:1024640005F0F2FB6FF01502104605B0F0BD1F2811
:10247400F2D921680B42EFD12368019305F0CCFC1B
:10248400A36801A90343D0B20393FFF7ADFF10F192
:10249400160FE7D0421C01350C34D5E7CCA7000851
:1024A400F4990008044B0522C3F89420BFF34F8F1E
:1024B400BFF36F8F704700BF00ED00E0BFF35F8F85
:1024C400024B0022C3F89420704700BF00ED00E0E7
:1024D40010B5034C01232278FFF7B0FF207010BD24
:1024E400590F002008B50B4A00231278FFF7A6FF06
:1024F40010F1160F07D0084A0021D2F89030C3F328
:102504000723984200DB08BDC2F89800C2F8A01067
:102514000130F2E7590F002000ED00E02DE9F0430F
:1025240057485849D0F890300D68C3F307239D42AB
:1025340085B000F2A180FFF7C1FF496800229542EF
:1025440001F10C011AD1504C504F25706846FFF729
:1025540025FBDFF83C81DFF83C9106460025AE42BE
:102564001FD1237846490020D1F89020C2F30722D6
:1025740093427BDBFFF796FF00204CE0C0F89820E5
:1025840051F80C3C23F01F03134343F01003C0F82D
:102594009C3051F8043C43F00103C0F8A0300132F0
:1025A400CDE7009800EB05114FEA051CCB683B40D2
:1025B400B3F5000F44D00AD8B3F5001F2ED0B3F5FD
:1025C400800F34D0B3F5801F10D00135C7E7B3F1C5
:1025D400807F3ED0B3F1007FF7D150F80C3088688B
:1025E4004A6805F019FC40F4802009E050F80C30EA
:1025F40088684A6805F010FC40F0885040F43020A8
:10260400039001A92078CDE90123FFF7EDFE00280E
:1026140028DA6FF0150005B0BDE8F08350F80C30EF
:1026240088684A6805F0F8FB40EA0800E8E750F8D3
:102634000C3088684A6805F0EFFB40EA0900DFE7E0
:1026440050F80C3088684A6805F0E6FB40F0827068
:10265400D6E750F80C3088684A6805F0DDFB40F096
:102664008870CDE7237801332370AEE7C1F8983042
:10267400C1F8A000013377E74FF0FF30CBE700BF8C
:1026840000ED00E0109B0008590F00200000F0FF4F
:102694000000081100000207F0B587B007460E4697
:1026A40014460021102268461D4606F07EFE0223D1
:1026B4008DF802302A46054B019321466846CDE940
:1026C400047604F0FDFA07B0F0BD00BF3D7E0008BB
:1026D40008B5024B1B689847002008BD4C0A00202F
:1026E400034B044A1860937843F0020393707047D5
:1026F4004C0A00201400002008B50649064821F0C1
:102704000701C1F1005202F5C03204F0DEFE0020E0
:1027140008BD00BF573A0020500A00202DE9F041BF
:10272400104E114F054600244FF001082B787169B3
:102734001A19D2B208FA02F201EA02008A4309D154
:1027440053FA84F3706157F833201AB107EBC303CB
:10275400596890476A780134E3B29A42E6D2BDE8F8
:10276400F08100BF003C01405C0A0020044B184487
:1027740000230133994200F8012BFADC704700BFB3
:102784005001002007B5062201210020FFF7EEFFCB
:10279400002211460620FFF75BFD012108460722AF
:1027A400FFF7E4FF002211460720FFF751FD08223E
:1027B40001210220FFF7DAFF002211460820FFF76B
:1027C40047FD092201210320FFF7D0FF0022114613
:1027D4000920FFF73DFD0A2201210420FFF7C6FF6F
:1027E400002211460A20FFF733FD0521084617226F
:1027F400FFF7BCFF002211461720FFF729FD28220E
:1028040006210A20FFF7B2FF002211462820FFF715
:102814001FFD442205484FF48043CDE9002383681B
:1028240069461B68984703B05DF804FB609500088F
:10283400034660B1B0FA80F2C2F11F02D2B2054978
:102844008856054A11680B431360FFF7F3BCFF2257
:10285400F5E700BF50010020003C0140024A136824
:1028640023EA000313607047003C0140032921D888
:10287400DFE801F0020C10190F4B9A6822EA0002FB
:102884009A60DA6822EA0002DA6070470A4B9A68B2
:102894000243F5E7084BDA680243DA609A6822EAF1
:1028A40000029A607047044B9A6802439A60DA689F
:1028B4001043D860704700BF003C014030B5B0B150
:1028C400B0FA80F3C3F11F03DBB20B4850F8334076
:1028D4008C4204D100EBC3056D68954205D044B920
:1028E40040F8331000EBC3004260002030BDFF23EA
:1028F400EBE76FF00F00F9E75C0A002060B1B0FA73
:1029040080F3C3F11F03DBB2044A002142F8331001
:1029140002EBC30251607047FF23F5E75C0A002015
:1029240000F00302043292000F23934043EA900024
:10293400C3B20233054A52F82320030C02EA1040C2
:1029440093FAA3F3B3FA83F3D840704700380140F5
:1029540038B50888264BC0F30B0007281B680D46C2
:10296400144614D810B96FF0850038BD0238052814
:1029740006D8DFE800F03403343220284FF4FA4359
:1029840023602968B1F5805F2BD20020EDE744284D
:102994000ED82F28E7D900F57D61C1F30B01012280
:1029A4008A4014490A42EBD14028DCD15B08E7E7AE
:1029B400A828E5D0D7E700F0B3F84FF4A872C3080D
:1029C40053439B08DCE700F0ABF84FF4A872C3084C
:1029D40053430722B3FBF2F3D2E7074BD0E70023BC
:1029E400CEE7C1F313310131B3FBF1F32360CCE73C
:1029F4003C0100201101100000127A00F8B5444F88
:102A0400444C00F0AFF8384605F0CAFA02F0FAFD7B
:102A1400A368414AC3F303131578D35C47FA05F559
:102A240020FA03F6AE4202D2284602F019FE2368C9
:102A340043F480232360236843F480332360354BBD
:102A44001A689103FCD55A6F42F001025A675A6F13
:102A54009207FCD59A6802F00C02082A17D11A686A
:102A6400940707D41A6842F001021A60294A1368CD
:102A74009807FCD5274B9A6822F003029A609A685B
:102A840012F00C0FFBD19A6822F0F0029A60214CEC
:102A9400236823F08073236023689901FCD463685E
:102AA40023F4403343F480336360636823F070633A
:102AB40043F0E063636000F037F8236843F0807309
:102AC4002360144B1A689201FCD59A6822F0F00234
:102AD4009A609A6822F0030242F002029A609A68AD
:102AE40002F00C02082AFAD1AE4202D3284602F0C0
:102AF400B7FD0A4B074A1F60936823F4E05343F47D
:102B040080539360936823F4604393600020F8BD7E
:102B140000BD0105003802408EAC00083C010020D5
:102B24000048704700127A00094B0A495A6811405C
:102B3400094A0A435A605A68084922F4403242F466
:102B440080325A605A681140054A0A435A607047F5
:102B5400003802400080BFFF085440000080BFF0EE
:102B640008544007064B1A6C42F080521A641B6CDE
:102B740082B003F080530193019B02B0704700BF01
:102B84000038024008B5074806F03EF838B1064858
:102B9400FFF7A6FD0448FEF76BFA002008BD6FF0AE
:102BA4001200FBE73C960008B12B00080A2838B550
:102BB400074D044604D1AB680D215B68284698474D
:102BC400AB6803485B68E1B29847204638BD00BF54
:102BD4003C9600082DE9F843D0F80480D0F8109012
:102BE400D8F8080017460D461E4605F030F9B7F52B
:102BF400001F044616D12846D8F80840FFF790FE77
:102C040084420CD1294605F022F90446FFF726FE3A
:102C14002046FFF773FE00212046FFF727FE002021
:102C2400BDE8F883B7F5800F20D0B6F1806F19D0D6
:102C3400B6F1C06F18D0B6F1007F1AD10226104940
:102C44004A462046FFF73AFEB0B9D8F8081028469D
:102C540005F000F920463146FFF708FE2046FFF74D
:102C6400E7FDDCE70126EAE70326E8E76FF08500E5
:102C7400D6E76FF01500D3E76FF00F00D0E700BF81
:102C84001982000838B5036904465860084D28467F
:102C940005F0BAFF40B16168AB680C311B68284687
:102CA400984700EAE07038BD6FF01200FBE700BF00
:102CB40060950008014803F0EBB800BF2400002031
:102CC40008B505F0D7FA024B1B68C01A08BD00BF4F
:102CD4007C0B0020014806F0B1B900BFC8010020F8
:102CE4000A2307B5A0FB032300210020CDE900013E
:102CF400024803F08FFE03B05DF804FBC801002016
:102D040008B505F0B7FA014B186008BD7C0B00202C
:102D1400014B1868704700BF7C0B002010B5124CA3
:102D2400BFF35B8F022354E8002F012A03D144E848
:102D340000310029F7D1BFF35B8F0CBF01200020C5
:102D440010D10A4BDB6A9847002344F8403CBFF398
:102D54005B8F54E8002F44E800310029F9D1BFF318
:102D64005B8F012010BD00BFC40B0020D09B000866
:102D740010B5064B5C68FFF7D1FF30B12CB10021D0
:102D84002046BDE8104003F007BF10BD800B0020B3
:102D940013B50D4BD3E901433BB10C4B5B6B019372
:102DA400002002B0BDE810401847FFF7B7FF40B15C
:102DB4003CB16FF00401204602B0BDE8104003F0BE
:102DC400EBBE02B010BD00BF800B0020D09B0008FA
:102DD4002DE9F347284C9A46D4E9019307460D465A
:102DE400164683B1254B00205B6B9847E368CDE919
:102DF40000A32A46D4F80880206833463946C047E1
:102E040002B0BDE8F08704F144020223BFF35B8FF4
:102E140052E8001F012903D142E800300028F7D10D
:102E2400BFF35B8F9046EBD1E36C1A78AA4288BF5C
:102E34001D70E36CA06C1A78394606F0A8FA236D6D
:102E440003B11E80636D0BB183F800A00B4BDB6AEA
:102E5400984700216160BFF35B8F58E8003F48E862
:102E64000012002AF9D1BFF35B8F484602B0BDE8D7
:102E7400F04703F091BE00BF800B0020D09B0008F8
:102E8400F8B5044600AF00680D4605F0BDFE0346E4
:102E94002068BBB96C4688B001686A462748C2E915
:102EA40005014FF400719183254942F8101F25480C
:102EB4004FF4E251FEF7B4FB6FF01205A546284625
:102EC400BD46F8BDE38821792B43DD02D0F808E044
:102ED400D0F810C006D513F4402F03D0DA0748BF4A
:102EE40083F44023DCF80050012623F480128E4042
:102EF400DB074CBF3543B543CCF80050DEF8003057
:102F0400984705460028DAD02368196823796C4667
:102F14008AB06A460C48C2E907354FF400739384BB
:102F24000A4BC2E9050142F8103F064800234FF45A
:102F34003151FEF775FBA546C1E700BFA7A80008FD
:102F4400030000011C9A0008C0A800080500000145
:102F540070B50D460F49BFF35B8F012051E8004F58
:102F6400002C03D141E80006002EF7D1BFF35B8F9C
:102F74000CD1094E41F8403CD4B2736D21469847B8
:102F84002846B36A21469847002070BD6FF00F00B1
:102F9400FBE700BFC40B0020D09B00082DE9F047DD
:102FA4004FF000088EB005AC264F81468A4616467F
:102FB4004146102209A80125CDE90544CDE9078839
:102FC40006F0F3F98DF831507B6B0D94002B35D05E
:102FD4002346324651464846FFF7BAFF041E29DB12
:102FE400F6B2CDE901860395BB8F174C009397F891
:102FF4003A3097F8392097F83810646A2846A04781
:103004000A23A840A0FB0323294609A803F06CFD6A
:10301400041E0FDA0D4A0E48294604F00CFEFFF791
:103024007DFE38B94FF0FF324FF0FF33294609A82F
:1030340003F05AFD20460EB0BDE8F0876FF015048A
:10304400F8E700BF800B0020D09B0008E0A8000830
:103054001C9A0008F0B58DB000248DF8072003AE4B
:103064000F461022214607A8CDE90366CDE90544A1
:10307400012506F09AF9274B8DF829500B96BFF3DA
:103084005B8F53E8002FA24203D143E8005100298B
:10309400F7D1BFF35B8F39D10DF1070243E9106417
:1030A4009A601D4E149ADA60159A1A615F60FF21C6
:1030B400736D28469847736B20469847DDE91223C1
:1030C400294607A803F010FD041E15DAFFF726FEB3
:1030D40050B94FF0FF324FF0FF33294607A803F0F1
:1030E40003FD9DF8074004E00C4A0D48032104F059
:1030F400A2FD20460DB0F0BD069B002BF1DA094A73
:103104000748294604F097FD069CF2E76FF00F0488
:10311400EFE700BFC40B0020D09B0008FCA8000808
:103124001C9A00080CA9000810B529B9FFF7F6FD90
:10313400D8B96FF0150010BD0E4BBFF35B8F0120A3
:1031440053E8004F002C04D143E8000CBCF1000FFD
:10315400F6D1BFF35B8F0AD1074C43E90F12636DBD
:10316400FF219847636B002098470020E3E76FF046
:103174000F00E0E7C40B0020D09B0008F0B52C4DF5
:10318400BFF35B8F8BB00C46012755E8003F002B43
:1031940003D145E80072002AF7D1BFF35B8F43D116
:1031A400244E2068F3689847E37A4BB32346103DD6
:1031B40004F11007186859682A4603C20833BB4251
:1031C4001546F7D14FF47A63089300220120237B3C
:1031D4000793CDE90522CDE9032023890293A3793E
:1031E400019363790093F569237994F90A10A84748
:1031F400B36D607B9847FFF791FD00200BB0F0BDE5
:103204000997227BB569CDE90732CDE90533CDE9CC
:1032140003330A2202922289CDE900323846A37987
:1032240062792179A847E3E76FF00F00E6E700BF72
:10323400C40B0020D09B000838B5084611461A4636
:103244000B4BBFF35B8F012453E8005F002D04D1C7
:1032540043E8004CBCF1000FF6D1BFF35B8F04D1FF
:10326400044BDB6B9847002038BD6FF00F00FBE781
:10327400C40B0020D09B000838B5114BBFF35B8F03
:10328400002453E8002F43E800410029F9D1BFF39B
:103294005B8F0C4943F8341C0B490C4D43F82C1C30
:1032A4000B4943F8241C0B4943F8301C2A6843F8A3
:1032B400440CA3F134009047EB6A9847204638BD8C
:1032C400C40B0020752D0008D52D0008D09B0008E4
:1032D400952D0008BD820008034BC01A0011034B52
:1032E40053F8203000201847200C00203400002020
:1032F400F8B5002A92FAA2F70C4DB7FA87F70646FA
:1033040008BF4FF0FF3700242B68B34207D12B7955
:10331400BB4204D1064800EB041002F0B9FD0134AD
:10332400062C05F10805EFD1F8BD00BF649C000828
:10333400200C00200346024A0248012104F084BC08
:1033440028A90008149A00080346024A02480121E9
:1033540004F07ABC45A90008149A000818B1024880
:10336400002104F0ADBF70475C9C0008032808BF2F
:103374000121024818BF002104F0A2BF5C9C000890
:1033840010B5094C0121204604F09AFF00210A20BF
:1033940005F088FD0021204604F092FF3C20BDE8A2
:1033A4001040002105F07EBD549C00082DE9F04F2B
:1033B400424E434C83B0814600AF002559F8253076
:1033C400002B72D0206805F01FFC0346C8B93C4AA4
:1033D40052F835206C4688B011686A463948C2E90B
:1033E40005014FF400719183374942F8101F3748A3
:1033F4004FF4E251FEF714F9A5460C37BD46BDE87B
:10340400F08F334B334903EB051005F067FCE38879
:103414002068217943F48032D0F810E0D0F8088095
:10342400DEF800C013F0010F4FF0010303FA01F3BB
:1034340014BF43EA0C032CEA0303CEF80030D8F897
:103444000030984794F804B02349D4F8008001224E
:1034540002FA0BF3C6E90113D8F80810D1F81CA03E
:10346400BAF1000F05D11D4A1848012104F0E3FB0D
:10347400C3E7314640467B60D0470028F3DBD8F8E9
:103484000810D8F81020D1F818A0BAF1000F0CD009
:103494007B681268134214BF4FF000734FF08063CF
:1034A4004FF0A07259464046D0470135062D06F12B
:1034B4000C0604F1080481D19FE700BFD80B00205B
:1034C400649C000863A9000803000001149A000822
:1034D400200C0020DD320008F53200087AA900082B
:1034E40010B58AB00DF1070306930123CDE9073126
:1034F4000992022306AACDE903328DF8070002924D
:10350400059304480449836802AA1C6804ABA047D5
:103514000AB010BD78960008409C000813B5044614
:1035240000214FF47A7005F0BDFC1C48002104F022
:10353400C7FE00214FF47A7005F0B4FC01220DF1AE
:1035440007014220FFF7CCFF002809DA144A154886
:10355400012104F070FB6FF00404204602B010BD9A
:103564009DF80730104A0F48032104F06DFB0F4803
:103574004FF4B011FFF784FC002801DA0C4AE6E7A7
:103584002046FFF779FE041E05DA0A4A05480121A0
:1035940004F051FBE1E70024DFE700BF549C00087E
:1035A40097A90008149A0008B3A900085C9C0008B5
:1035B400CFA90008EBA9000810B504460D4805F092
:1035C40023FB70B10C4805F01FFB50B10B484FF4BE
:1035D400D011FFF755FC58B92046BDE81040FFF75D
:1035E4009DBF0748074A012104F025FB6FF0120034
:1035F40010BD00BF7896000814960008549C00087B
:10360400149A00080EAA000810B588B00DF107033B
:1036140004930123CDE9053104AB60F07F000293EC
:1036240002238DF807000792039304480449836832
:1036340002AA1C680023A04708B010BD78960008B1
:10364400409C000813B50023044601220DF1070134
:103654004D208DF806308DF80730FFF741FF002824
:1036640006DA1D4A1D48012104F0E5FA02B010BD36
:103674009DF8073023F0070343F004030F2C6FF089
:1036840003028DF807302346A8BF0F239342B8BF27
:103694001346DBB2002C9DF80620D5BF0433134338
:1036A400134343F07003D8BFDBB201220DF10601CE
:1036B40009208DF80630FFF7A7FF002801DA084A31
:1036C400D0E701220DF107014D20FFF79DFF0028EF
:1036D400CCDA044AC6E700BF23AA0008149A0008FB
:1036E40039AA000853AA000813B509480469836875
:1036F40001A95B68984720B9236801985840C0F332
:10370400C0000028D4BF0020012002B010BD00BFBB
:1037140014960008044A13680BB1002159724361DE
:10372400106004F008BE00BF800C002037B50446CA
:1037340001A804F0B2FD6CB1174D2A68134673B9A1
:1037440063682360012323816AB9FFF7D9FA20460D
:10375400FFF7E0FF01A804F0A9FD03B030BD9C42CF
:10376400F8D05B69EBE7FFF7ABFA236818442B68E2
:1037740020601A689042EAD35A69596911B95C61A8
:103784006161E7E71168884202D913465269F4E798
:103794005C616261DEE700BF800C0020F8B5FFF7D2
:1037A400B7FA1C4C0546FFF7ABFA2368A3B1471BD5
:1037B4001E462D1A716929B95A692260DA6819728C
:1037C40042B9FEE70A68BA428CBF521900220A6065
:1037D4007669EFE718699047002623682BB92068BB
:1037E40080B9F8BD18699047F7E71D68FFF768FAD4
:1037F4008542F4D223685A692260DA681E72002A6C
:10380400F0D1FEE7437A002BEBD1BDE8F84004F099
:1038140092BD00BF800C002037B5134D044601A8AB
:1038240004F03BFD2B686BB164B10022A342227209
:1038340011D1597A5C6961B15A7244B120462C6045
:1038440004F079FD01A804F031FD03B030BDFFF7A9
:1038540041FA2C60F6E71A465B69002BF2D09C42D1
:10386400F9D163695361EDE7800C002010B5094B71
:10387400002219461C68844202D89C68844205D8F8
:103884000132152A03F10803F4D1FEE701EBC2016A
:10389400087910BDA09C0008054B93F8E1202AB9D3
:1038A40093F80C2112B9012283F80C21704700BF50
:1038B400CC0C0020014B93F8E0007047CC0C0020A6
:1038C400F0B5BDF814409DF818C09DF81CE09DF8B3
:1038D400205040B1012814D0012200239818013847
:1038E400B0FBF2F0F0BD8CF0010CE30003EBCC0371
:1038F40018330EEB450503EBC5034FF47A714B43C4
:10390400ECE7501F012803F1040304D80C2C38BF42
:103914000C24002706E0C1B9A2F10B07012F8CBFCC
:10392400002701272801BCF1000F00EBCE000CBFDB
:1039340014250025A0EB8200062A4FEA82062844BB
:10394400A2F1020C08D835460BE00129E1D1A2F11D
:103954000C0047424741E5E70830002FF3D04FEA17
:103964008C050028ACBF2E182E1C701E062A90FB56
:10397400F5F003FB00448CBF0C340E3402290AD842
:10398400A30001334FF47A7203FA0CF35343024A4F
:1039940052F82120A2E7FFDE949C000843F6095365
:1039A40010B5B0FBF3F241F6846403FB120104EB9F
:1039B4000124B4FBF3F40A4B04EB0224C3F8E4003F
:1039C400C4F30741062004F0FDFCC4F307210720DB
:1039D40004F0F8FCE1B20820BDE8104004F0F2BCA9
:1039E400CC0C002070B5114B93F8E160012E1CD172
:1039F400122004F0F2FC10F001040D4D0BD005214F
:103A0400122004F0DFFC2B687BB19B696BB130465C
:103A1400BDE8704018470421122004F0D3FC2B6841
:103A24001BB19B690BB12046F2E770BDCC0C0020A2
:103A3400100E002070B5314C94F8E010012902D02A
:103A4400022952D070BD94F8E130CBB1012BF9D1E9
:103A540094F82F31002BF5D00221122004F0B2FC8F
:103A6400274B1B68002BEDD05C69002CEAD01C208E
:103A740004F0B3FC234600F03F00BDE87040184753
:103A8400A36E6BBB84F80C1194F80D31002BD9D1C3
:103A94001C48FFF7C1FE0123112084F80D3104F006
:103AA4009CFC4008404284F80E011B2004F095FC65
:103AB40005461C2004F091FC43F6095340EA052511
:103AC400C0B258432D0A80305D4305EB10250C200D
:103AD400C4F8105104F081FC400984F81401B1E7E2
:103AE40094F80C31002BADD0CEE794F8E130012BE3
:103AF400A8D194F82F31002BA4D0AEE7CC0C002031
:103B0400100E0020840C002070B5404C94F8E05056
:103B1400012D02D0022D59D070BD94F8E130CBB103
:103B2400012BF9D1FFF7E0FD0028F5D03848FFF765
:103B340073FE8021122004F045FC002384F8E03059
:103B4400344B1B68002BE7D0DB68002BE4D0BDE8C6
:103B540070401847FFF7C8FD0028DDD02E48FFF756
:103B64005BFEB4F81631B4F8182113439BB23BB989
:103B740094F8FE00E8B92A4604F58B7104F0B7FB0B
:103B8400B4F81801B4F8162194F81A312349121A1A
:103B94009A42014413DB5A1ED2B2002004F0A7FB60
:103BA400B4F8182194F81A31013A1344A4F81831DE
:103BB400B2E7322004F011FCA4F81601E0E7D2B217
:103BC400002004F094FBB4F81631EFE794F8E150C8
:103BD400002DA1D1FFF788FD01289DD0B4F818016C
:103BE400B4F8163194F81B210C491B1A9342014472
:103BF40007DD284604F088FB94F81B31B4F818213B
:103C0400D3E7DAB2284604F07FFBDCE7CC0C0020D3
:103C14009C0C0020100E0020840C00205A0F002061
:103C240073B58F4C00238DF8073094F8E030012BE6
:103C340004D0022B00F0FF8002B070BD94F8E13094
:103C44003BB3012BF8D14021122004F0BBFB12201E
:103C540004F0C3FB8DF807009DF80730814D13F085
:103C6400200F00F093802021122004F0ABFB94F885
:103C740032310BB984F8E0307B48FFF7CDFD2B6877
:103C8400002BD9D01B69002BD6D002B0BDE8704000
:103C9400184794F80031734D93B33F2004F09DFB13
:103CA4008DF807009DF807309B0729D40B213E208F
:103CB40004F088FB10213F2004F084FB6A48FFF7DE
:103CC400ABFD94F802618EB96848FFF7A5FD84F84E
:103CD400E0602B6813B11B6903B198470023A4F873
:103CE4000C31A4F81831A4F81631A5E70D2004F01E
:103CF40074FB40F04001C9B20D2004F063FBE8E717
:103D0400B4F81621B4F81811594E52EA01030AD135
:103D140094F8FE0050BB5749012204F0E8FAB4F8C5
:103D24001811B4F81621521AD2B23144002004F00A
:103D3400DEFAB4F816314C48A4F81831FFF76CFDDC
:103D440094F80231C3B9494884F8E030FFF764FDC0
:103D54002B68002BC2D09D68002DBFD094F90E2192
:103D6400B4F8161142480023A847B7E7322004F0FC
:103D740034FBA4F81601D2E70D2004F02EFB40F02A
:103D84004001C9B20D2004F01DFBE1E7192004F045
:103D940024FB40B20230801084F83C011A2004F065
:103DA4001CFB94F93C213449002A40F30B133ADA02
:103DB400D4F8E46092B28E428CBF9D3AA43A9BB28E
:103DC400104403441BB21320A4F83E3104F005FB55
:103DD40084F84001102004F000FB01460D2004F09B
:103DE400F1FA94F840212249002004F080FA94F872
:103DF40032310BB984F8E0301B48FFF70DFD2B6816
:103E0400002B3FF419AF9D68002D3FF415AF94F9D2
:103E14003C31B4F93E2194F840111548AC4602B047
:103E2400BDE870406047D4F8E4208A429BB28CBF5E
:103E34009D38A438C5E71148FFF7EEFC94F8E1304B
:103E4400012B03D10821122004F0BCFA002384F8CA
:103E5400E030044B1B68002B3FF4EEAE1B6812E706
:103E6400CC0C0020100E00209C0C0020840C0020A0
:103E74005A0F0020E20D002040DD4A1FB40C002040
:103E840070B5092004F0A9FA0546062004F0A5FA45
:103E94000646072004F0A1FA0402082004F09DFA63
:103EA40044EA064443F609530443C0B25843240A7F
:103EB4005C438030002104EB1024092004F082FAD2
:103EC4003B2004F08AFA40F04001C9B23B2004F0E0
:103ED40079FA3B2004F081FA8206FAD40C48FFF701
:103EE4005DFD3B2004F079FA40F04001C9B23B206B
:103EF40004F068FA3B2004F070FA8306FAD42946E9
:103F0400092004F05FFA2046BDE87040FFF746BD83
:103F140000A1BC3308B50A48FFF77EFC0948FFF747
:103F24007BFC0948FFF778FC002004F061FA0020CC
:103F340004F0DCF9054B002283F8E02008BD00BF43
:103F44009C0C0020B40C0020840C0020CC0C00201D
:103F540008B50848FFF760FC0748FFF75DFC074811
:103F6400FFF75AFC012004F043FA054B002283F8C2
:103F7400E02008BD9C0C0020B40C0020840C002020
:103F8400CC0C002037B5604C8DF8071094F8E13064
:103F94000546DBB1012B45D000255C48FFF73CFC0E
:103FA4005B48294604F0E5F994F8E130002B76D01B
:103FB400012B00F08C800223554884F8E030FFF791
:103FC400B5FB032004F014FA03B030BD94F8FE00EE
:103FD4009DF80710A4F81831A4F81611F0B90122BD
:103FE4000DF1070104F090F99DF80720531E3F2BB3
:103FF40004D94848294604F094F92022294600208F
:1040040084F81B2104F080F9B4F8182194F81B31CA
:10401400D4F804511344A4F81831BEE7322004F054
:10402400D1F9E1E794F8313133206BB304F0D5F9D9
:1040340000F0BE01332004F0C5F919213B2004F03F
:10404400C1F99DF8071084F84011222004F0BAF950
:1040540000210E2004F0B6F900210D2004F0B2F97D
:10406400012004F0BAF930F0F80304D1FFF770FF2F
:10407400012004F0A5F929469DF80720002004F04A
:1040840043F9D4F8345188E704F0A7F900F0BE01ED
:1040940041F00101332004F095F91D21CEE74020C1
:1040A40004F09BF900F00301402004F08BF9412057
:1040B40004F093F900F03E01412004F083F9352027
:1040C40004F08BF900F03F0084F81A0173E794F8C8
:1040D4002F3173B1F521112004F074F9402004F05C
:1040E4007CF900F0330141F04001402004F06AF90A
:1040F40061E7F721112004F065F9402004F06DF91F
:1041040000F03F01EFE700BFCC0C00209C0C002026
:10411400B40C00205A0F0020F8B5834C05468348A0
:10412400FFF77AFB94F8E1604EB1012E4DD00123E4
:1041340084F8E030002D00F0F380002729E04020CF
:1041440094F8027104F049F900F0030141F00C0104
:10415400402004F037F9412004F03FF960F03E01BB
:10416400C9B2412004F02EF9352004F036F900F0EC
:104174003F0084F81A011E210D2004F023F9A4F84D
:104184000C61A4F81861A4F81661012384F8E030E6
:1041940035B16748294604F0ECF86548FFF7C6FADC
:1041A40094F8E130002B40F0B580052004F020F9AC
:1041B400002F40F0B780D4F808115E4804F0D9F815
:1041C400BDE8F8405B48FFF7B1BA94F831313320C9
:1041D4003BB304F002F940F04101C9B2332004F0CA
:1041E400F1F819213B2004F0EDF8D4F82031082B24
:1041F4004FF031007DD804F0F0F800F07F01312059
:1042040004F0E0F80021302004F0DCF8D4F8203188
:10421400082B1CD8DFE803F01036404A545E686867
:10422400680004F0DAF800F0BE0141F00101332027
:1042340004F0C8F81D21D5E72F20482104F0C2F866
:10424400D4F8E40000F5F4500230FFF7A7FB94F82B
:104254002F3194F83271002B52D01D21112004F01B
:10426400B1F8402004F0B9F800F03301402004F024
:10427400A9F800210F2004F0A5F800210D2004F076
:10428400A1F882E72F20442104F09CF8D4F8E4003C
:1042940000F522503430D8E72F20442104F092F85E
:1042A400D4F8E40000F574500430CEE72F20442104
:1042B40004F088F8D4F8E40000F5A2405E30C4E7C6
:1042C4002F20442104F07EF8D4F8E40000F5F440F3
:1042D4001230BAE72F20442104F074F8D4F8E40033
:1042E40000F52240C630B0E740212F2004F06AF8E0
:1042F400ADE704F072F860F07F01C9B23120F5E750
:104304001F21112004F05EF8402004F066F800F04C
:104314003F01ABE727B10520BDE8F84004F068B8D9
:104324000620F9E7F8BD00BFCC0C0020B40C002037
:104334009C0C0020840C002008B520B101280AD070
:104344004FF0FF3008BD112004F047F8C0F34700D8
:10435400404200B2F6E7084BD3F8E420074B9A42F8
:104364004FF01B0003D904F038F89D38F1E704F04E
:1043740034F8A438EDE700BFCC0C002040DD4A1F20
:1043840010B50446012004F028F8C0F3C010A04280
:10439400174B02D183F8E10010BD012C83F8E140F2
:1043A4004FF0000013D004F023F8012004F015F8B6
:1043B40000F07F01012004F005F80021402004F002
:1043C40001F83021BDE81040412003F0FBBF04F0A8
:1043D4000FF8204604F001F860F07F01C9B22046CE
:1043E40003F0F0FF0021402003F0ECFF0021E9E797
:1043F400CC0C002038B5174B174918601748184CD7
:1044040003F0AFFF1449174803F0ABFF12491648F5
:1044140003F0A7FFFEF7B4FFFFF732FD002003F01F
:10442400E7FF1248FEF7C2FF00252078FFF7A8FF38
:104434000135A178607803F0C5FF102D04F1030461
:10444400F3D10020FFF79CFF094B002283F8E02002
:1044540038BD00BF100E00203D4A0008B40C0020F7
:1044640078AA00089C0C0020840C00203400002052
:10447400CC0C00202DE9F04F87B005460093109B2B
:1044840001939DF85C3002930C469DF864309DF8CE
:104494005810039316469DF8602004920591BDF8C8
:1044A4004470BDF848B09DF84C809DF850909DF83C
:1044B40054A0FFF765FFFFF74BFDDDE903322DB193
:1044C400012D05996BD007B0BDE8F08F9049019894
:1044D40081F802314FF4FA5381F80121C1F8F860F0
:1044E400C1F8F400C1F8F04081F8FE8081F8FF9033
:1044F40081F800A1A1F8FC70022003FB0BF3B3FBCD
:10450400F6F3C1F80831834BB3FBF6F6C6F3072183
:1045140003F058FFF1B2032003F054FF2046FFF7E5
:10452400A5F90146122003F04DFF0198FFF79EF90B
:104534000146132003F046FF390A252003F042FF09
:10454400F9B2262003F03EFFB8F1000F1BD0494614
:10455400322003F037FF302003F03FFF00F06F00FC
:10456400054345EA0A11C9B2302003F02BFF31207C
:1045740003F033FF40F04001C9B2312007B0BDE879
:10458400F04F03F01FBFFF21322003F01BFF302048
:1045940003F023FF6FF07F0500F06F00E0E7022CCB
:1045A40000D9FEE75A4D009885F83231062E33467D
:1045B40038BF062307340C2B85F82F1128BF0C2392
:1045C400029985F82901072CC5E94846A5F82A71FE
:1045D40085F82C8185F82D9185F82EA185F8301168
:1045E40085F8312178D1A3F10B02012A8CBF002276
:1045F40001221D2085F82821019303F0EEFE009B83
:1046040048EA430141EA0411C9B21D2003F0DAFE6D
:104614001E2003F0E2FE019BCBF3012141EA8A0153
:1046240041EA031100F008000143C9B21E2003F05F
:10463400C9FE262003F0D1FE95F8283120F00801A8
:1046440041EAC301C9B2262003F0BCFE5FFA8BF134
:104654001F2003F0B7FE390A202003F0B3FEF9B29D
:10466400212003F0AFFEB8F1000F03D04946222009
:1046740003F0A8FE95F82F316BB1442003F0ADFE92
:1046840060F07F01C9B2442003F09CFE95F830111C
:10469400242003F097FE092C2BD1D5F8E4201E4BDF
:1046A4009A424FF002014FF036001ED903F08AFE01
:1046B40064213A2003F086FE062E4FF031001BD809
:1046C40003F08BFE00F0F80141F00501312003F006
:1046D40079FE0C21372051E7082C04D10B2E94BF0E
:1046E4000022012285E7002283E703F06BFE7F218D
:1046F400DFE703213620DDE703F06FFE00F0F80169
:1047040041F00301312003F05DFE0A21E2E700BF1E
:10471400CC0C00200048E80140DD4A1F2DE9F04F91
:1047240087B01E469DF8543005938A469DF858304C
:104734009DF85C1002931746189A04910392019015
:10474400DDF840809DF844B0BDF848909DF84C5089
:104754009DF85040FFF714FEFFF7FAFB5046FEF7B2
:1047640071FF019BDDE903212BB1012B059B5BD07C
:1047740007B0BDE8F08F764BC3E93B7683F8FE5073
:1047840083F8004183F80111C3F8042183F8E8A0F9
:10479400C3F8F880A3F8FC9043F6095341F6846605
:1047A400B7FBF3F203FB127706EB0726B6FBF3F62F
:1047B40006EB0226C6F30721042003F003FEF1B240
:1047C400052003F0FFFD634EB6FBF8F60220C6F3A6
:1047D400072103F0F7FDF1B2032003F0F3FD4FEAE4
:1047E4001921252003F0EEFD5FFA89F1262003F05C
:1047F400E9FD302003F0F1FD85F00105240100F00E
:104804006F0044EAC5140443E1B2302003F0DAFD3A
:10481400312003F0E2FD40F04001C9B2312007B07D
:10482400BDE8F04F03F0CEBD494F022E87F81CA11E
:1048340000D9FEE7B8F1060FC24638BF4FF0060AAA
:104844000736BAF10C0F029887F829B128BF4FF048
:104854000C0A072EC7E94868A7F82A9187F82C5153
:1048640087F82F3187F8300187F82E4187F8311106
:10487400C7F8342156D1AAF10B02012A8CBF0022B9
:10488400012287F828216BB1442003F0A6FD60F0D3
:104894007F01C9B2442003F095FD97F8301124201C
:1048A40003F090FD1D2003F098FD45EA4B0141EA19
:1048B4000611C9B21D2003F085FD1E2003F08DFDF5
:1048C400A40000F00B0044EA0A140443E1B21E20E1
:1048D40003F078FD262003F080FD97F8283120F0BE
:1048E400080141EAC301C9B2262003F06BFD4FEA77
:1048F4001921202003F066FD21205FFA89F103F0DD
:1049040061FDB8F1060F4FF0310015D803F065FDD5
:1049140000F0F80141F00501312003F053FD0C21B2
:1049240037207CE7082E05D1B8F10B0F94BF002285
:104934000122A6E70022A4E703F04FFD00F0F801EE
:1049440041F00301312003F03DFD0A21E8E700BFF7
:10495400CC0C00200048E80130B54FF47A738BB0DA
:1049640003FB02F40D46FFF719F800230522CDE9F5
:1049740001324FF49652CDE90633CDE90433039363
:1049840018462946009208941A46FFF7C7FE3120BC
:1049940003F023FD00F0BF01312003F013FD0D4DA2
:1049A400F021402003F00EFDA021412003F00AFD78
:1049B4002146284603F0DDFC074B0222284683F8F3
:1049C400E020FEF7B3FE03200BB0BDE8304003F057
:1049D4000FBD00BFB40C0020CC0C002038B5054638
:1049E4000C46FFF7CDFC15B1012D0BD038BD074B9C
:1049F40093F8FE30002BF9D121463220BDE838402F
:104A040003F0E0BC21462320F8E700BFCC0C0020D3
:104A140010B504460120FFF7B3FC064B83F8384178
:104A24002CB13421BDE81040392003F0CBBC122155
:104A3400F8E700BFCC0C002070B52D4C94F8E030A2
:104A4400012B02D0022B2DD070BD94F8E130CBB9EC
:104A54000B213E20A4F80C31A4F81831A4F8163127
:104A640003F0B0FC10213F2003F0ACFC94F80231B9
:104A740093B10D2003F0B1FC40F04001C9B20D2008
:104A840003F0A0FC1B4B1B68002BDDD0DB68002B64
:104A9400DAD0BDE870401847174884F8E030FEF7D4
:104AA400BBFEEFE7FEF76CFCFFF7EAF9002003F02A
:104AB4009FFC124D00262878FFF762FC0136A97886
:104AC400687803F07FFC102E05F10305F3D1002074
:104AD400FFF756FC94F83801FFF79AFF002384F897
:104AE400E030044B1B68002BAED05B68CFE700BFFF
:104AF400CC0C0020100E0020840C002078AA0008A2
:104B04002DE9F0471E4F044600EBC1060025B442D0
:104B140001D1002014E02068C30600F01F0911D45D
:104B2400656845F02005C0F3481AC0F344201028F6
:104B340023D857F82080B8F1000F0DD16FF0120080
:104B4400BDE8F087B9F1100F04D0B9F1110FEAD123
:104B54006568E8E73025E6E7404604F055F80028A4
:104B6400ECD04B462A460AF00F01404603F068FB9E
:104B7400002804F10804CADAE2E76FF01500DFE761
:104B8400509D0008024A0348012103F054B800BFB5
:104B9400B9AA0008249A0008F8B503690C465E68AF
:104BA40023794168012B34D09A1E55425541AD02F8
:104BB4006279022A9CBF354F37F812C0A27988BFA8
:104BC4004FF4005C042A27D0003B18BF01231B03C9
:104BD400E279012A0A680CBF4FF440770027A64205
:104BE400D1681CD121F4B05129430B43D36013691C
:104BF40023F4405343EA0C03136143681A6853696E
:104C040023F440733B4353613168BDE8F84003F03B
:104C140056BD4FF4C065CBE74FF48053D8E701F499
:104C2400C0618D421FBFD16821F4C0612943D160A6
:104C3400426811680A6902F4405294451FBF0A6928
:104C440022F4405242EA0C020A6142681168CA68BE
:104C540002F4805293421FBFCA6822F48052134365
:104C6400CB6043681A68536903F440739F421FBFC3
:104C7400536923F440733B43536121683368994279
:104C840003D003F01CFD23683360F8BD049F0008C3
:104C9400F7B50469466805462E48206003F0B4FF62
:104CA40048B92D4A2D48012102F0C5FF6FF01204C6
:104CB400204603B0F0BD2068F16883681B689847FC
:104CC4000446E0B9306A01AA002103F002FC041E84
:104CD400EEDB019B002219791868FFF711FF041E0F
:104CE400E6DB6E682B6934685F68E36823F400537D
:104CF400E360706803F088FF48B9194AD2E7194A9B
:104D04001648012102F097FF002CD1DBDAE7D6E93F
:104D140001018368DB6803B1984704F10C0353E88D
:104D2400003F43F00C0304F10C0141E80032002A77
:104D3400F3D139462846FFF72FFF337D1BB1636952
:104D440043F008036361E36843F40053E360002421
:104D5400AEE700BF60950008E7AA0008249A00089F
:104D640026AB000806AB00082DE9F04143681D6836
:104D74000369D3F804800B790C46012B4979A67991
:104D840033D102294CD9042E47D04FF480574FF425
:104D9400C06203238B4240D1002F79D0002A14BF74
:104DA40003220422B24238D1E37963B1012B34D116
:104DB4003A4B9D4207D0A3F54C439D4203D003F5E3
:104DC40050439D4229D1EB6823F40053EB60214604
:104DD400FFF7E2FEEB6843F40053EB6094E8030052
:104DE40088E803000020BDE8F081022B08D10229E5
:104DF40021D9042E11D04FF480624FF48057C8E7B4
:104E040002290A461FD9042E04D133B94FF480571E
:104E14001A46BEE763BB0329C4D06FF08500E2E7FE
:104E24001F4A042E32F811C0F7D04FF4C062033B7E
:104E3400012B10D8F1E71A4A042E32F811C0ECD035
:104E44004FF48062F3E7164A042E32F811C016D1EB
:104E5400002BE2D11A464FF48057BCF5805F13D083
:104E6400BCF5405F12D0BCF1000F92D1012391E751
:104E7400033B012BD1D90022BFE70022D7E7002B47
:104E8400FBD11A461F46E8E7002383E7022381E7A4
:104E9400002A14BF0222032284E700BF001001404D
:104EA400049F0008B0B582B00446806810F4B8705E
:104EB40000AF1FD06D468AB06A46104B5361104B49
:104EC400C2E906304FF4007313840E4B42F8103FCE
:104ED40000230D484FF41151FCF7A2FBA3685B06B5
:104EE400AD4605D5E3687B607B68A3687B607B681F
:104EF4006FF004000837BD46B0BD00BF6CAB0008BE
:104F040055AC000804000001049A00082DE9F043A0
:104F140083B00669D0F8048000AF0546424C2046B1
:104F240003F072FE58B9414A4148012102F083FE60
:104F34006FF0120420460C37BD46BDE8F083A36829
:104F4400D8F810101B6820469847041E05DA394A21
:104F54003748012102F06FFEECE7D8F804003A1D4F
:104F6400002103F0B6FA041E07DB7B6800221979DE
:104F74001868FFF7C5FD041E06DA2F4A2C4823469D
:104F8400012102F061FED5E7D8F808302846984799
:104F9400B5684FF00108D6E9023203EBC2039D4223
:104FA40004D3304603F0B0FC0024C3E7286803F0C0
:104FB4002BFE0346B0B92A68297910686C468AB07A
:104FC4006A461E4DD1614FF4007111841C49C2E937
:104FD400055042F8101F16484FF41151FCF720FBFE
:104FE400A546A5E728682979EB88D0F810C0D0F841
:104FF4000890DCF80040DA0754BF43F4B01383F49C
:10500400D01323F4801208FA01FEDB074CBF44EAF4
:105014000E0424EA0E04CCF80040D9F80030984776
:10502400041E87DB0835B6E760950008E7AA000888
:10503400049A000877AB000892AB0008B0AB0008F4
:10504400040000012DE9F04F8DB0984600AF43688D
:105054000569D3F800907B6082460E4693461AB9E0
:10506400B8F1000F00F0B280B388990400F1908089
:105074004FF0FF324FF0FF3305F1100000F0E2FD76
:105084006E60DFF8CCC2DAF810303B60BCE80F0089
:1050940007F110040FC49CE80F0084E80F003A687D
:1050A400DAF804E01268DEF80040B38896427BD157
:1050B4001A0508D5236823F44443BBF1000F70D0CC
:1050C40043F440432360B388C3F34513082B0CBF58
:1050D4000123022328464246594603F032FBD9F8FD
:1050E4000040D9F8003043F04003C9F80030DAF842
:1050F4001060306804F4444448B183683BB1012132
:10510400083003F0EDFB3368186903F06EFDD9F83D
:10511400043043F02003C9F80430B8F1000F05D07F
:10512400D9F8043043F04003C9F80430D9F8043006
:1051340043F08003C9F804304FF4FA5B0A2605F102
:10514400280A0023A86C1946814240F0F38000210C
:10515400D5F850C00846604540F0F3808B4238BF14
:105164000B460BFB03F22B681B68B2FBF3F2C8324D
:10517400A2FB0623504600F065FD002800F0F480F1
:10518400744A7548012102F056FD6FF0730813E06C
:10519400AB69002B7FF46CAF6B689E427FF468AF01
:1051A4006FE743F400438DE7C3F34512082A12D096
:1051B400102A10D06FF085082B689B8813F40053D5
:1051C40004D16B6005F1100000F002FD4046343755
:1051D400BD46BDE8F08F13F4004F63685F4814BF09
:1051E40043F0100323F0100363608368DEF81010AB
:1051F400DB683BB95A4A5848012102F01CFD6FF0A4
:105204000408D9E707F10C0298470028F2DBF96893
:105214003068012321FA03F2824219D90133092BA0
:10522400F8D16C468AB06A464E4BC2E905304B0849
:10523400D361090A0523116242F8103F464800234E
:105244004FF42151FCF7ECF96FF01508A546B3E7CC
:10525400226807F1300122F04002226001EB83034F
:10526400226853F8243C22F0380213432360B388A5
:105274009B0703D4236823F0020302E0236843F06E
:1052840002032360B38813F0040F236814BF43F0B0
:10529400010323F001032360B38813F4006F236830
:1052A40023F4444304D0BBF1000F32D043F4404311
:1052B4002360B38813F0100F236814BF43F08003F6
:1052C40023F080032360236823F400532360B3682E
:1052D40013B3236843F400732360636823F0040367
:1052E4006360B38813F0010F236814BF23F482733F
:1052F40043F482732360B388C3F34513082B2368F4
:105304000CBF23F4006343F4006323603B681E6016
:10531400D9E643F40043CBE7B38813F0010F2368C5
:1053240023F40073D8D143F480232360636843F0EB
:105334000403D5E76A6C02EBC102013152681344DD
:1053440002E7EA6C02EBC00201305268114402E742
:105354005C9A00082FAC0008049A000860950008C5
:10536400D4AB000800AC0008D5F84080B8F1000FB9
:105374007FF422AFB4F5404F1BD1AB6DABB92B6EAC
:105384009BB17B681B681A6822F4444242F40042D1
:105394001A601A6842F040021A605A6842F0200209
:1053A4005A605A6842F040025A60D9F8004004F446
:1053B4004444AB6D002B7FF4C4AE2B6E002B7FF402
:1053C400C0AEF9E610B54FF0E0230F499C691A69A5
:1053D40008689B690D4902F4803234B993B90346D5
:1053E4004AB90A681044C01A10BD002B08BF03460E
:1053F4000AB9A342F5D90A6802440A604FF0E022D0
:105404001269EEE70446F3E7180E0020140E00209C
:105414000A4B102283F82320094B42F2D0021A606F
:10542400084B002018604FF0E02342F2CF025A618B
:1054340098611A6942F007021A61704700ED00E0B2
:10544400180E0020140E0020684620F007018D4637
:1054540019B5FFF7B7FF114B1149D3E900420868AA
:10546400001942F10002C3E900020E4A00230B6056
:10547400D2E9004142F2D003001BB0FBF3F04343F6
:105484001B1941F10001C2E9003101F0DDF9FCF71B
:1054940015FCBDE819408546704700BFA8070020E9
:1054A400140E0020A00700202DE9F041DFF8DC8075
:1054B40099B1421C0BD14FF0E022136923F0010390
:1054C40013614FF07F43C8F80030BDE8F081D8F88D
:1054D4000060012807DC00270BE0431CD8F80060BB
:1054E400F7D140F2CC7040F2CD739842A8BF184671
:1054F400471EEFF31185102383F31288BFF36F8FD8
:10550400FFF760FF224C4FF0E0239969D4E90023B0
:10551400801843F10003C4E900031E4B00221A6003
:105524001D4B1A68831A2ED442F2D00C0CFB07339D
:1055340003F503530F33B3FBFCF7131A0CFB0733C8
:10554400B3F5806F154A38BF4FF48063934228BF88
:1055540013464FF0E022C8F80030013B90695361D4
:10556400002393618142A1EB0003D4E9001238BF08
:105574009B195B1842F10002C4E9003285F31188DB
:10558400BFF36F8FA1E74FF48063E2E7180E0020AA
:10559400A8070020140E0020A0070020C0D5FF009B
:1055A40038B5EFF31185102383F31288BFF36F8F9F
:1055B400084B1C68084B1B68E41AFFF703FF85F3CC
:1055C4001188BFF36F8F42F2D0032044B0FBF3F095
:1055D40038BD00BFA8070020A007002038B5EFF3AE
:1055E4001185102383F31288BFF36F8F044B1C685B
:1055F400FFF7E8FE85F31188BFF36F8F204438BDB1
:10560400A807002008B513498B6803F00C03042B8A
:105614001CD0082B1CD14A684B68496813F48003DA
:1056240014BF0D480D48C1F3881118BF002302F0C0
:105634003F02A1FB0001FAF7ABFD064B5B68C3F325
:10564400014301335B00B0FBF3F008BD0248FCE703
:105654000248FAE70038024000127A000024F400FD
:10566400002841D0214B1A681A6802F44042B2F56E
:10567400004F25D11E4A90421DD81E4A1B689042F5
:1056840001D8002005E003F440430120B3F5804F26
:1056940024D0194A136823F00703034313601368E3
:1056A40003F0070383421CBF136803F00703C01A07
:1056B40018BF012070471B68022003F44043E5E74C
:1056C4001B6803F44043B3F5804FDAD1084B98428A
:1056D40008D8084B98424FF00000DAD9012838BFA7
:1056E4000120D6E70220D4E7012070470070004073
:1056F4000087930380C3C901003C024010B50446EF
:10570400FBF7BEFE0348044A012102F094FA204646
:1057140003F085FAFC9900089EAC00082DE9F843D3
:10572400044600AF0D46EFF31188102383F312886B
:10573400BFF36F8F0428294A98BF294B9668117CC0
:1057440094BF53F82030274BE9468AB06A4626486E
:10575400C2E9073140F201339384244BC2E90504C2
:1057640042F8103F224800234FF43151FBF758FF11
:10577400CD4645B1EB69C3F3080323B11D4A1C4868
:10578400012102F058FA2EB1304603F0DCFA08B1D8
:10579400037803B91848E9468AB06A46174BD061C2
:1057A400C2E9053640F201331384154B42F8103F29
:1057B40000230F484FF41151FBF732FF2946CD4621
:1057C4002046FFF79BFF88F31188BFF36F8F3046A5
:1057D400FCF7D8FCBD46BDE8F88300BF1C0E0020D2
:1057E400D89E0008ADAC0008C3AC00080500000159
:1057F400FC990008EBAC0008BBAC00080CAD000839
:105804000400000138B5094B53F82040013053F827
:105814002050A54200D838BD636823B1204603F068
:1058240006FA0834F5E723689847FAE7EC9E00087F
:1058340070B52B4B2B4C2C4D012286B003201A70D3
:10584400FFF7E0FF01F0DEF903F00DFA0420FFF7A3
:10585400D9FF2646AE4204F1300410D300F002FD15
:10586400204C224EAC4226D300F010FDFAF7C4FFC0
:105874001F4A137B23F00103137306B070BD54F861
:105884000C3C059354F8103C049354F8143C0393D3
:1058940054F8183C029354F81C3C019354F8203CEF
:1058A400009354E90A2354E90C0100F035FB54F841
:1058B400303C5E65CDE7D4E90A23B3F1FF3F08BF6E
:1058C400B2F1FF3F05D052EA0301206803D100F092
:1058D4009DFD3034C6E73146183000F03FFFF8E74D
:1058E4005A10002048990008489900083D8E000885
:1058F4003008002008B50348034A0021121A03F0B7
:10590400AEF908BD600200205C10002070B50023D1
:1059140086B00122CDE90423134E144D01930F22C6
:10592400CDE902321249142303FB005506EBC016DD
:1059340004464FF4C07000FB04110E4B00954FF465
:10594400A072304600F0E8FA737B0B4AEE6023F055
:10595400040373734FF4046304FB033313442C7480
:105964006B6006B070BD00BFB00700201C0E0020A5
:10597400402000206D8C000800180020BFB50020D6
:10598400FFF740FF2A4B83F308882A4C2A4F6369A8
:1059940043F4007363610025F02384F82230E57733
:1059A40025766576A57684F82050636A43F4E0236F
:1059B4006362FCF7BBFBFCF7D7FC4FF0FF33A36239
:1059C400E362FCF7ABFDFCF7F3FCFBF7C9FC1B48F7
:1059D4001B4C00F019FB03F016F9FBF773FB0120D5
:1059E400FFF710FF0220FFF70DFF00F083FC154BBB
:1059F40015495C61154B05930123CDE903534FF41D
:105A040080623B46CDE901550095204600F084FABA
:105A1400627B064622F004022046627303F0CFF94B
:105A24002846FFF773FF3A4631462046FCF77EFCD2
:105A34004020002000ED00E035580008B0080020A8
:105A4400300800201C0E0020C02100206EAD00088C
:105A54002DE9F34104460E4600F10808EFF31187DF
:105A6400102181F31288BFF36F8F006AE1688842C6
:105A740037D22568AC4217D0B5B1284603F0FFF8F9
:105A840005F1180003F062FAA2686869314603F070
:105A94007EFC0023EB67284603F091F94046394623
:105AA40000F0BAFB002029E0A268E069314603F067
:105AB4006EFCE369A26813446269E361934204BF24
:105AC4002369E361236A01332362102104F1240072
