:020000040800F2
:10000000C026002041290008F58F00082D2900088E
:100010002D2900082D2900082D29000800000000C6
:10002000000000000000000000000000192A000885
:100030002D29000800000000B5290008F15D000826
:10004000E12B0008E12B0008E12B0008E12B000860
:10005000E12B0008E12B0008E12B0008E12B000850
:10006000E12B0008E12B0008E12B0008E12B000840
:10007000E12B0008E12B0008E12B0008E12B000830
:10008000E12B0008E12B0008E12B0008E12B000820
:10009000E12B0008E12B0008E12B0008E12B000810
:1000A000E12B0008E12B0008E12B0008E12B000800
:1000B000E12B0008E12B0008E12B0008E12B0008F0
:1000C000E12B0008E12B0008E12B0008E12B0008E0
:1000D000E12B0008E12B0008E12B0008E12B0008D0
:1000E000E12B0008E12B0008E12B0008E12B0008C0
:1000F000E12B0008E12B0008E12B0008E12B0008B0
:10010000E12B0008E12B0008E12B0008E12B00089F
:10011000E12B0008E12B0008E12B0008E12B00088F
:10012000E12B0008E12B0008E12B0008E12B00087F
:10013000E12B0008E12B0008E12B0008E12B00086F
:10014000E12B0008E12B0008E12B0008E12B00085F
:10015000E12B0008E12B0008E12B0008E12B00084F
:10016000E12B0008E12B0008E12B0008E12B00083F
:10017000E12B0008E12B0008E12B0008E12B00082F
:10018000E12B0008E12B0008E12B0008E12B00081F
:04019000E12B000857
:1001940053B94AB9002908BF00281CBF4FF0FF31EA
:1001A4004FF0FF3000F00CB8ADF1080C6DE904CE4F
:1001B40000F010F8DDF804E0DDE9022304B0704734
:1001C400704700BF034613F8012B002AFBD1181A0D
:1001D400013870472DE9F04786468C460846089E4C
:1001E400154674461946002B40F0C2808542B2FA87
:1001F40082F245D94AB1C2F1200300FA02FC2EFA78
:1002040003F3954043EA0C0C94404FEA154EA8B210
:10021400BCFBFEF8230C0EFB18CC08FB00F943EAE8
:100224000C43994528D9EB1808F1FF3704D29945B6
:1002340002D9A8F102072B44A3EB0903A4B2B3FB30
:10024400FEFC0EFB1C330CFB00F044EA0344A0420A
:1002540014D92C190CF1FF3304D2A04202D9ACF109
:1002640002032C44241A43EA07401EB1D44000235D
:1002740034607360BDE8F0874746DDE76346F1E725
:1002840092BB431B01214FEA154EAFB2B3FBFEFCF8
:10029400200C0EFB1C330CFB07F840EA0343984583
:1002A40062D9EB180CF1FF3004D2984502D9ACF1B5
:1002B40002002B44A3EB0803A4B2B3FBFEFC0EFB29
:1002C4001C330CFB07F744EA0344A7424ED92C190C
:1002D4000CF1FF3304D2A74202D9ACF102032C443F
:1002E400E41B43EA0040C0E7C2F1200320FA03F113
:1002F400954090402EFA03F303434FEA154EAFB2F4
:10030400B1FBFEFC0EFB1C10190C0CFB07F841EAB8
:100314000041884504FA02F422D969180CF1FF302F
:1003240004D2884502D9ACF102002944A1EB0801AA
:100334009BB2B1FBFEFC0EFB1C110CFB07F743EA5E
:1003440001439F420ED9EB180CF1FF3104D29F42B6
:1003540002D9ACF102012B44DB1B41EA004192E7D4
:100364006046E3E76146F7E76046A3E76346B7E71D
:10037400834206D916B9002108467BE7C6E900E0A6
:10038400F9E7B3FA83F78FB9834201D3724508D8EA
:10039400BEEB020460EB030301209C461EB900215E
:1003A40068E73846FAE7C6E9004CF8E7C7F1200CDD
:1003B400BB4022FA0CF41C432EFA0CF120FA0CF385
:1003C400B84001434FEA14490EFA07F5B3FBF9F8B4
:1003D4001FFA84FE09FB18300B0C08FB0EFA43EAE3
:1003E40000439A4502FA07F240D9E31808F1FF30B6
:1003F40004D29A4502D9A8F102002344A3EB0A03CC
:1004040089B2B3FBF9F809FB183308FB0EFE41EA85
:1004140003418E452CD9611808F1FF3304D28E456F
:1004240002D9A8F10203214443EA0040A0FB029848
:10043400A1EB0E014145CE46434602D306D14D45BC
:1004440004D2B9EB020E68EB04030138002EA6D0E7
:10045400B5EB0E0261EB030101FA0CFC22FA07F37F
:100464004CEA0303F940C6E9003198E74046C5E782
:100474004346D9E7B0B582B000AF03460D4600222B
:100484003A7102227A7188B06C4614F1100213D0CA
:100494000E211AB1042901DD23486061002038705F
:1004A40002207870BAB1082901DD2048A06104F166
:1004B4001C0C4FF0000E0BE06FF00041E9E70EF169
:1004C4000800384410F8080C0CF8010B0EF1010E6A
:1004D400BEF1010FF3D90D2923DD4FF00E0C42B10B
:1004E4000321397100217971B9710121F971786899
:1004F400206100216FF300016FF341016FF382016A
:100504006FF3C501032060F38811CCF30A0C6CF37C
:10051400532165F31F51064801F0D2FA0837BD464E
:10052400B0BD6FF01B0CDAE778BD00087CBD000895
:1005340094BC000810B51449144800F037FA002898
:1005440021DB0523124A0321124808F045FCFC2054
:1005540007F04CFB0446B0B105230370102242702F
:1005640000224280082202710B4AF0210C3007F06D
:100574007FFBA060204600F049FA44F62060002189
:1005840006F092FEF9E710BD7904000828B90008C6
:100594009CBD000894BC0008BCBD0008002300E01A
:1005A40001333F2B0CDC074A12F823208242F7D197
:1005B400044A02EB830252888A42F1D10120704737
:1005C40000207047480B002010B4094C2368094AE6
:1005D40002F8230002EB8302518001335A4203F0F4
:1005E4003F0302F03F0258BF5342236010BC7047E0
:1005F400440B0020480B002010B584B004468368E7
:100604001B690022114698470A4BEC460FCB8CE835
:100614000F00A3681B68614620469847041E02DB4E
:10062400204604B010BD2346034A0121034808F0C4
:10063400D3FBF5E738BD0008DCBD00089CBC00080E
:1006440030B585B00446EC460D4B0FCB8CE80F005B
:10065400A3681B68614620469847051E09DBA3680A
:100664001B6900220749204698470025284605B003
:1006740030BD2B46044A0121044808F0ADFBF5E7E0
:1006840048BD000895060008F8BD00089CBC000899
:100694000A2A40F2A6802DE9F04F83B000AF0C4641
:1006A4001D46911E665A204607F06BFDB04209D1E3
:1006B400D4F808902678B4F8028041463046FFF713
:1006C4006DFF18B10C37BD46BDE8F08F414630468A
:1006D400FFF77AFF94F800A094F80180B4F802E0E0
:1006E40094F804C06E468CB06B4613F1100268D0C7
:1006F4002020F2B10146042803DDDFF8E8B0C3F896
:1007040014B0082901DDC3F818A00C2901DDC3F8D1
:100714001C80102901DDC3F820E0142901DDC3F891
:1007240024C0182900DD9D621C2902DD97F93010D0
:10073400D9621F2848DD20253AB1082139710021EA
:100744007971B971F9717868186100216FF300014A
:100754006FF341016FF382016FF3C501032363F368
:100764008811C5F30A0363F353216FF31F51002368
:100774001D4801F0A5F9B5466378052B27D02379E8
:10078400012B9FD909F1090007F030FA034678607C
:10079400002897D094E8030018601971CAB2013A8E
:1007A4001A71C3F808904A4604F10C0103F10C00D5
:1007B4000AF0D1FE00220023391D0C4805F064FF25
:1007C40080E76FF0004094E76FF01B05B4E7084B37
:1007D4001B68002B3FF476AF494604F10C009847A0
:1007E40070E7704714BE00089CBC00081402002087
:1007F400400B00202DE9F04784B002AF8B68F02B4A
:1008040000F2858006460C4649882078FFF7DCFE16
:10081400A1680931204607F0B4FC80463046FFF752
:10082400EBFE051E6EDBA5680B35284607F0DEF9E6
:100834008146002800F08880A268093221460AF027
:100844008AFEA368093329F80380B3685B682A46E3
:10085400494630469847054648460AF04FFE002D63
:100864005FDB94F8009094F801E0B4F802C02579B5
:100874006C468CB002AB13F1100259D01C20CAB1E3
:100884000146042803DDDFF8C8A0C3F814A0082932
:1008940001DDC3F818900C2901DDC3F81CE0102910
:1008A40001DDC3F820C0142900DD5D62182901DDD3
:1008B400C3F828801B283EDD1C253AB10721397175
:1008C40000217971B971F9717868186100216FF3A9
:1008D40000016FF341016FF382016FF3C50103233C
:1008E40063F38811C5F30A0363F353216FF31F51B4
:1008F4000023184801F0E4F8A5463046FFF7A0FEAF
:10090400051E1BDB28460837BD46BDE8F087F022EC
:100914000092114A01210F4808F069FA6FF0150599
:10092400F0E72B460D4A01210A4808F055FAE4E79E
:100934006FF00040A3E76FF01B05BEE7084A0121F2
:10094400044808F03FFADDE76FF00B05DAE700BF73
:1009540088BE00089CBC000850BE000870BE000899
:10096400C8BE000800B583B00E480AF0EAF870B9B2
:1009740003B05DF804FB01990A48FFF73BFF0198B7
:100984000AF0BCFD4FF47A70002106F08DFC4FF0A4
:10099400FF324FF0FF3301A9034805F0E7FE0028BA
:1009A400F5D1E8E728B900081402002030B589B071
:1009B40005460C460AF0C5F8D8B10F4B1C6000225E
:1009C4000023CDE906230023049305220392029316
:1009D40001930093094B4FF48062094909480AF0D6
:1009E400C6F9094906F006F92846FFF729FE09B0B9
:1009F40030BD6FF01200FAE7400B002069090008CF
:100A04008011002060020020ECBE000800B583B015
:100A140001900022002301A9024805F035FE03B02D
:100A24005DF804FB140200202DE9F04F91B005920B
:100A34000293134602F004020092C3F3C20210F0C0
:100A44000303019340F02B8280468A460132041D41
:100A540000284FD0B8F1000F05D0A4EB08030433ED
:100A6400534500F21F82029B5D1E019B0493069373
:100A7400039300264FF0FF3B0427B946B8F1000F5B
:100A840001D0029B2360531E0793002A40F35D812B
:100A9400059B13F0020228D00120A4EB08018B0867
:100AA4001AB1B1F5007F80F0038203990F2900F297
:100AB4000282B8F1000F00F06081DBB201F1400264
:100AC4006A4402F8103C02F820BC002800F051816E
:100AD40063F07F0301F140026A4402F8103C049B76
:100AE40001330493039B0133039304340022CC4663
:100AF40040463DE001F0070A5444CAF1080AA9E758
:100B0400002634E0002632E0002630E00827BC4608
:100B14002DE025292BD10BF1010B01260427BC461E
:100B240025E04729EED82A2914D32A39C9B24FF02F
:100B3400010E0EFA01F14FF6DA7E11EA0E0F16D10C
:100B440011F0625F40F0C08011F0010F40F08C8022
:100B540000260CE0252903D10BF1FF3B002606E01B
:100B640001D9002603E0202901D02329CCD11D4638
:100B74006B1C6978002900F01981002EC9D07A29EC
:100B8400BED84C29CDD34C392E2961D80FF2040E8E
:100B94005EF821F0730B0008550C0008550C000892
:100BA400550C0008550C0008550C0008550C00089D
:100BB400550C0008550C0008550C0008550C00088D
:100BC400550C0008650C0008550C0008550C00086D
:100BD400550C0008550C0008550C0008550C00086D
:100BE400550C0008550C0008CD0C0008550C0008E5
:100BF400650C0008650C0008CD0C0008CD0C00083D
:100C0400CD0C0008730B0008650C0008110B0008DC
:100C1400550C0008730B0008550C0008290D00083A
:100C2400650C0008290D0008550C0008550C000837
:100C3400310D00085F0C0008650C0008550C000815
:100C4400550C0008650C0008550C0008590C0008E8
:100C540000268CE70427BC4689E70427BC4686E7C0
:100C640029786C2924D000263C44013CB4FBF7F4D9
:100C740007FB04F420B1211A6144514500F21581A7
:100C8400002A58D1BCF1040F00F08880BCF1080F91
:100C940040F014811A99073121F0070101F1080588
:100CA4001A95D1E9008908B1C4E9008908345EE7DE
:100CB40013F8021C6C2903D000260427BC46D3E792
:100CC40000260827BC46CFE729784C291AD01A9960
:100CD400073121F0070101F108061A96D1E90067EE
:100CE400073424F0070440B1211A0831514513D8C0
:100CF40029784C2913D0C4E9006708340026082752
:100D0400BC4634E71A99073121F0070101F10806BE
:100D14001A96D1E90067E3E76FF01B00BCE0C4E971
:100D24000067EAE700260427BC469DE73246002612
:100D34000427BC4698E7E14680461A9A111D1A9189
:100D440012680292079A1D4698E6624B029A9A42EA
:100D540004D3614B9A420AD3002300E00023002B02
:100D64007FF496AE059B03F00202002095E6012372
:100D7400F5E7069B01330693B4E610B10AF1010AC4
:100D8400B0E6009B13B10AF1020AABE60298FFF742
:100D940019FA0AEB000303F1020AA3E61A990D1DDE
:100DA4001A95096800B121600434E0E68046231AEC
:100DB400B3F5806F80F0858090B1002202609B08BB
:100DC4000370009B83B1069BC370049B88F80230B8
:100DD4001BBB019DDDF80C90DDF810B0029F3DE0D7
:100DE4005344A3F1080057E0069B4370EDE7013339
:100DF4009842EED903F140026A4412F8101C12F929
:100E0400102C002AF3DA01F07F01A4EB080201326E
:100E1400524559D804F8011BE9E7019B0398E7E719
:100E2400009B43B305F140036B4413F8203C04F8E2
:100E3400013B019EA4EB080333440133534546D8D8
:100E440005F140036B4413F8103C04F8013B3246AF
:100E5400394620460AF07FFB34440135A94519D9A7
:100E6400BBF1000FDCD005F140036B4413F9103CD7
:100E7400002BD5DAF1E705F140036B4413F8103C7D
:100E840058F82370002248F823203846FFF79AF9CF
:100E9400461CCFE7A4EB080011B0BDE8F08F6FF05B
:100EA4000D00F9E76FF01B00F6E76FF01B00F3E7A6
:100EB4006FF01500F0E76FF01500EDE76FF0150027
:100EC400EAE76FF01500E7E76FF01B00E4E76FF067
:100ED4001B00E1E790B600083CD100082DE9F04F73
:100EE40097B000AF8346BA613B61D7F88030C3F353
:100EF400C0033B62F96011B907F007FBF8609BF887
:100F04000260B14636B1D7F8803013F0010F0DD12D
:100F1400002300E000239BF803207A6242B1D7F853
:100F2400802012F0020F22D1002202E00123F2E716
:100F3400002202B9EBB19BF80050AA00BA60DBF8BA
:100F440004207A610BEB8505BA69F2B1002B40F0FD
:100F54000481B9F1000F00F00F81D7F8803013F04D
:100F6400040F40F00D810020F8610646F9E00122EB
:100F7400DFE7BB691BB13A69F96858469847FC68D2
:100F840020465C37BD46BDE8F08FFC68E3B94D44AC
:100F940000233B6123E00444013501364E451AD257
:100FA4002A7800235BF822201946B86907F0C2FAB0
:100FB400BAF1000FEFD0D7F888309845EBD22AF871
:100FC400180008F10108E6E70026C7F81C80B046BF
:100FD400D7F884A0E2E7C7F81080D7F81C80D7F8C8
:100FE400803003F00503FB604FF0000AA146C7F808
:100FF4001CB09CE000253B6A7BB9002D79D0D7F862
:10100400803013F0010F79D1FB68002B6FD10223DC
:10101400A9EB030988E00125EDE75946786907F053
:10102400CFFA0028E9D06C46002387F82C3002233D
:1010340087F82D308AB0694611F1100237D0122595
:101044001AB1042D01DDB34B4B61002387F828301E
:10105400022387F829306ABB112D45DD122362B1C2
:10106400042087F82C00002087F82D0087F82E0034
:10107400012087F82F00F86A08616FF300086FF306
:1010840041086FF382086FF3C508022161F38818E1
:10109400C3F30A0363F353286FF31F580023414635
:1010A4009D4800F00DFDA546A9F102093CE06FF052
:1010B4000045C5E72B46082D01DD786988610C2BB6
:1010C40001DDC1F81CB001F12003002009E000F1AA
:1010D400300C07F1280EF4441CF830CC03F801CB93
:1010E40001300128F3D9B7E76FF01B03B7E70123F9
:1010F4008EE7D7F8803013F0020F15D00023224674
:101104001946B86907F016FAD7F8843053B13B6929
:10111400D7F88820934205D2D7F8842022F8130008
:1011240001333B61013881440AF1010A35467B6A87
:101134009A4510D22E4616F802BB6B78FA6952F81B
:101144002340764B9C42FFF455AF754B9C42FFF411
:1011540062AF00254FE74C4612E707F14400002335
:10116400FB6118B14A4629460AF0F5F94D444FF09F
:101174000008C7F804901EE00020F8610646F0E776
:10118400FE6107F134000026EBE700253B6A33BB20
:10119400002D3BD0D7F8803013F0010F26D0731CFC
:1011A40006F1300207F12801561806F8149CDEB245
:1011B40008F1010825467B6A98454AD22C4614F862
:1011C40002AB95F801905BF82930544A9342DCD382
:1011D400534A934201D30025D8E70125D6E7514667
:1011E400786907F0EDF90028D2D0E1E7D7F880302C
:1011F40013F0040FDCD0FA69531C303207F12801D4
:101204000A4402F8249CDBB2FB61D1E7D7F88030B2
:1012140013F0020F09D0731C06F1300207F1280104
:10122400561806F8149CDEB2C2E7F869431C00F1B4
:10123400300107F128028A1802F824AC024602326F
:10124400D2B2FA6107F1580252FA83F303F8249CEC
:10125400AEE7D7F804909BF8003087F854309BF839
:101264000130334487F85530D7F8803013F0020F3B
:101274000ED1FB69C3F3470387F85730D7F88030A2
:1012840013F0010F06D113F0040F3ED1002302E046
:101294000023F1E7002387F85630DBF800003863B9
:1012A400786DCBF80000D7F810804246B9685846EC
:1012B400D7F818A0D047041EFFF662AE386BCBF8FF
:1012C4000000C7F810804246F96907F13400D0479E
:1012D40000285EDB04EB0008B96849447B6A01EB33
:1012E4004301D7F810904A46FB68591A2846D0475C
:1012F400041EFFF645AE08EB04054FF00008C7F8DE
:1013040024B0B3465446CA4621E0FB69C3E74FF014
:10131400000909E008BF000874BC000890B6000882
:101324003CD100084FF000095246012107F12C007E
:10133400A04700282FDB05444B4632465146204641
:1013440007F0F8F8002828DB054408F10108D8451F
:1013540018D208F1300307F12802134413F8143C9F
:1013640087F82C307A6A52F82360D7F88430002B3F
:10137400CDD0D7F888309845D4D2D7F8843033F814
:101384001890D1E73A6900210846BB6998472C4672
:10139400F6E50446F4E50446F2E50446F0E500BF4C
:1013A400014B1860704700BF0000002080B505465F
:1013B4000E461746984605F0DDFF03460AF05CF931
:1013C4000446DFF8189049F8003042463946304662
:1013D400A84754F8090001F0D1FA00BF0800000042
:1013E400034A536823F0020353600020704700BF90
:1013F400002004E0084B1A6842F480721A601A68EC
:1014040042F400721A601A6842F480621A60034B54
:10141400034A1A60704700BF003C024048010020A4
:101424000024F40038B505460B4C00E010340B4B97
:101434009C420FD263685B79002BF7D02946204683
:1014440007F014FC0028F1D023681B6829462046C5
:101454009847EBE738BD00BFE4BC0008F4BC0008C3
:1014640070B506460D46084C04E02A46314620462F
:1014740098471034054B9C4204D223689B69002B87
:10148400F3D1F6E770BD00BFE4BC0008F4BC00086B
:1014940008B509F053FE0022431819D213440D4A2B
:1014A400A2FB03CE2EF0030C0CEB9E0CA3EB0C035F
:1014B400C01A61F100014FF0CC3300FB03F302FBCF
:1014C4000133A0FB02021344400840EAC37008BD84
:1014D4000122E3E7CDCCCCCC2DE9F041074605460B
:1014E4000AE007EA0807144B03EB06135B680422BF
:1014F4001968204607F0FAFBD5B195FAA5F6B6FAB5
:1015040086F60D4C04EB06140123B3406FEA03087E
:1015140025EA0305237B002BEED03301064AD3587A
:101524001B69002BDDD0204698470028E4D1D8E77A
:101534003846BDE8F08100BFE4BC00082DE9F04165
:1015440080460F461F4BBFF35B8F53E8005F6A1C56
:1015540043E800210029F8D1BFF35B8F6DBB1A4C1F
:10156400002607E0636804221968204607F0BEFBE2
:1015740001361034154B9C4211D2237B002BF7D03B
:10158400204607F067FB23681B69002BEAD020463E
:1015940098470028E6D00123B3401D43E8E7B8F19B
:1015A400000F0BD055B12846FFF796FF0546002FD4
:1015B400F8D00A2007F05CFBF4E700252846BDE8D4
:1015C400F08100BF5C0C0020E4BC0008F4BC0008FF
:1015D40008B5064B186018B1054B1B68092B00DCD5
:1015E40008BD044805F044F9FAE700BF500C002098
:1015F400580C00204402002008B5024805F038F9D0
:1016040008BD00BF4402002030B589B000220F4954
:101614000F4809F0A2FD0F4D00220023CDE9062357
:10162400002404940E2303930294019400940A4B1F
:101634004FF440720949284609F099FB08492846A5
:1016440005F0D8FA204609B030BD00BFFD150008EA
:10165400D807002018030020ED190008C015002049
:10166400D4BF0008014B53F820007047F0BF0008B6
:1016740048B108B5054A1060054B1960084600F0EA
:1016840013FD002008BD6FF0150070470400002012
:101694004C0C002008B5054B1B781BB1034B0122F1
:1016A4001A7008BD024805F0E3F8F7E77C11002042
:1016B4004402002008B5104BBFF35B8F53E8001FB2
:1016C400013143E80012002AF8D1BFF35B8F30B92F
:1016D4000A4809F04EFD0A4805F0CAF808BD094B4E
:1016E400BFF35B8F53E8001F013943E80012002A5F
:1016F400F8D1BFF35B8FEBE7540C0020D807002030
:1017040044020020580C0020064B00200146BFF381
:101714005B8F53E8000F43E80012002AF9D1BFF3AE
:101724005B8F7047540C002038B5FFF7EDFF05467A
:10173400094C00E01034094B9C420BD263685B797E
:10174400002BF7D023685B68002BF3D02946204692
:101754009847EFE738BD00BFE4BC0008F4BC0008BC
:10176400034B18680028D4BF00200120704700BF35
:10177400540C002010B5044C0449204607F0B4F87A
:10178400034B1C6010BD00BF80010020DCBF0008BB
:10179400480C002008B500230C4A13700C4A13604F
:1017A4000C4A13604FF47A710B48FFF761FFFFF79F
:1017B400E1FF0A4A06E0094BD31A1B1101335168B1
:1017C4000B711032064B9A42F5D308BD7D110020EF
:1017D400540C0020580C002095140008E4BC0008A8
:1017E400F4BC000808B50146014807F051FA08BDE9
:1017F4008001002008B5024807F059F908BD00BF70
:101804008001002008B50146024B186807F046FA2B
:1018140008BD00BF480C002008B5024807F042FA92
:1018240008BD00BF8001002010B582B00022002353
:10183400CDE900232C4B187808B902B010BD6846D6
:1018440007F048FA044680B1FFF7ECFD2046FFF7A5
:10185400D9FF264BBFF35B8F53E8001F013943E8E0
:101864000012002AF8D1BFF35B8FFFF779FF58B954
:101874001F4A1368516813F57A7341F1000113602C
:101884005160FFF7C9FFD8E709F058FC002243185C
:1018940027D21344174AA2FB034C2CF0030404EB95
:1018A4009C041B1BC01A61F100014FF0CC3300FBF8
:1018B40003F302FB0133A0FB02021344400840EA95
:1018C400C3705B080A490A684968801A63EB01031C
:1018D40040F2E932904273F10003C9D3FFF724FFC9
:1018E400C6E70122D5E700BF7C110020580C002078
:1018F400D0070020CDCCCCCC0F4B1B7803B1704764
:1019040010B500210120FFF719FE0C4C00E0103443
:101914000B4B9C4208D263685B79002BF7D0236899
:101924009B6820469847F2E7FFF77EFF0028FBD12B
:10193400014B01221A7010BD7D110020E4BC000887
:10194400F4BC000810B582B01A4BBFF35B8F53E8A8
:10195400002F511C43E800100028F8D1BFF35B8F1F
:10196400154B1B7863B9154B1B68B3B1BAB1092A7F
:1019740013D1134809F0FDFB124804F079FF0CE081
:10198400EFF31184102383F31288BFF36F8FFFF7F3
:101994004BFF84F31188BFF36F8F02B010BD002298
:1019A4000023CDE9002342F210720023044806F01C
:1019B40047F8F2E7580C00207D110020500C00205D
:1019C400D80700204402002010B50446044B1B68CD
:1019D4009847A0602146034807F080F910BD00BF76
:1019E40004000020800100202DE9F0410021084678
:1019F400FFF7A4FD804650B14FF4FA76002709F0B2
:101A04003BFE154B1858FFF7E3FD002515E04FF09A
:101A1400FF364FF0FF37F2E74046FFF75DFD8046A3
:101A240070B94FF0FF364FF0FF3709E02C463246CD
:101A34003B460A4804F064FF2546B8F1000FEBD199
:101A4400FFF7F2FE04460028F6D1002DEED0002167
:101A54000846FFF705FDEAE70800000044020020FD
:101A64000248034BC01AC008704700BFE4BC00081A
:101A740074BC000810B50C46FFF7F2FFA04203D96E
:101A8400024B53F8340010BD0020FCE774BC00087E
:101A940000B589B0059206930023079362B1074A03
:101AA4000C9B02930B9B01930A9B009305ABFFF7DE
:101AB40015FA09B05DF804FB0022F1E7078D000870
:101AC4002DE9F04F8BB004AF05461E468846C1F39E
:101AD4004A24002C00F0898091460022FA603A6181
:101AE4007A6104230293FB1801930A23009307F1FC
:101AF4000C0321464846FFF7F1F9B0F5006F58D3BF
:101B0400D9F804106D4600233B7302237B738AB01B
:101B140004AC14F1100217D012201AB1042801DD0C
:101B24003B4B636100233B7002237B70CAB10346C5
:101B3400082800DDA1610C2B02DD40F2FF73E36194
:101B440004F1200300210AE06FF00040E5E701F111
:101B540018063E4416F8186C03F8016B013101298C
:101B6400F5D9112822DD122342B104213973002151
:101B74007973B9730121F973F868206100216FF357
:101B840000016FF341016FF382016FF3C50102207D
:101B940060F38811C3F30A0363F353210023C1F3F1
:101BA40013011C4807F030F9AD462DE06FF01B031C
:101BB400DAE760F35328C0F30A0A0AEB1850173027
:101BC40020F007008008FFF70DFE8346B0B1042320
:101BD4000293FB1801930A230093534600F1100269
:101BE40021464846FFF754FF08E004EB115417342C
:101BF40024F00704A008FFF7F5FD83463346424668
:101C04002946584607F096F81C37BD46BDE8F08FC4
:101C140010C000087CBC00082DE9F04F85B0804658
:101C24000D4617461E46DDF838B0DDF84090B9F190
:101C3400000F41D0119B039300934B460F9A102140
:101C44000020FEF7F1FEB0F5006F2DD282460BEBBB
:101C54000003173323F0070300246FF300046FF32A
:101C640041046FF3820468F3C50467F3881460F3D6
:101C740053246BF31F549808FFF7B4FD074650B183
:101C84001030B9F1000F06D0119B00934B460F9A08
:101C94005146FEF7C9FE334622462946384607F028
:101CA40049F805B0BDE8F08F40F2FF73034A022102
:101CB400034807F091F8F4E70020C7E750C0000894
:101CC4007CBC0008406820B1034BC01A40F3CF002D
:101CD40070474FF0FF30704774BC00080EB400B575
:101CE40082B0014603AB53F8042B0193034801F07F
:101CF40087F802B05DF804EB03B07047438E000828
:101D040010B584B011F0440F05D01A4B1B6833B9D9
:101D1400002004B010BD1849FFF7E0FFF9E71749A8
:101D24000968B2FBF1F2B2FBF3FC03FB1C224FF493
:101D34007A7E0EFB02F2B2FBF3F403FB14210EFBDA
:101D440001F1B1FBF3F10E4AA2FB0C32D20A4FF4BB
:101D5400616303FB12CC0B4BA3FB0CE35B09029105
:101D64000194C3EB0311ACEB810100910649FFF729
:101D7400B5FFCEE7640C002088C00008600C00208A
:101D8400C5B3A2918988888894C0000861B108B558
:101D94002AB1064A52F8232012B9054A00E0044A3F
:101DA4000449FFF79BFF08BD704700BF34C100081A
:101DB400B0C0000878BD00082DE9F041054617467B
:101DC400069EDDF81C8081B900242EB132461149EB
:101DD4002846FFF783FF0444B8F1000F14D06FB115
:101DE400099B042B13D00C4909E00C4B099A53F8B6
:101DF40022200B49FFF772FF0446E6E706494246F4
:101E04002846FFF76BFF04442046BDE8F0810549EE
:101E1400F5E700BFCCC00008BCC0000848C10008FA
:101E2400C4C00008B8C000082DE9F04F87B00546CB
:101E34000C46049205939DF84C7001F0020B01F0DE
:101E4400010AC1F3C00801F4807906F04DFF18B30C
:101E5400024616492846FFF741FF0646BBF1000F2C
:101E64001CD13A465146284607F014F8B9F1000F40
:101E740001D0002311930397129B0293119B0193AA
:101E8400109B00930023049A41462846FFF794FFD1
:101E9400304407B0BDE8F08F0026DFE7059A2146FD
:101EA4002846FFF72DFF0644DBE700BFD0C000083B
:101EB40011F0100F0BD108B511F0200F03D0044915
:101EC400FFF70CFF08BD0349FFF708FFFAE7704767
:101ED40010D00008D4C000082DE9F04105460F4693
:101EE400164698460699FFF7E3FF0024444505DAB1
:101EF40024492846FFF7F2FE0134F7E7002409E0FD
:101F040020492846FFF7EAFE0BE01F492846FFF761
:101F1400E5FE01340F2C0CDC002C02DD14F0070F5D
:101F2400EED0B442F1D23A5D18492846FFF7D6FE06
:101F3400EFE717492846FFF7D1FE002409E01149CD
:101F44002846FFF7CBFE0BE012492846FFF7C6FEF2
:101F540001340F2C13DC002C02DD14F0070FEED03B
:101F6400B44207D23A5D0C4B9B5C13F0970FEBD154
:101F74002E22E9E703492846FFF7B0FEE8E7BDE86B
:101F8400F08100BFD0BD0008E0C00008D8C0000840
:101F9400E4C00008E8C000082DD000082DE9F04195
:101FA40084B004469DF82C500C9F0E9E95B9012BCD
:101FB4001ED019484FF0000827B13B462246174966
:101FC40006F0CEFAC6B905BB204606F021FF04B0E0
:101FD400BDE8F08103950A980290019300920B46A4
:101FE40000220F992046FFF71FFF80460C48E3E7C5
:101FF4000B484FF00008DFE70F9B0093434632463F
:102004000D99204606F05EFFDDE72A460F9920462B
:1020140006F04CFFD8E700BF7B8E0008052E0008B1
:10202400438E00082DE9F04383B00646056842F26A
:102034000F738B4228BF0B46184A0521684605F0EA
:1020440017FE04467368D3F804900B27DFF850801A
:1020540005E04A4639464046A8473F1A8044002FC7
:10206400F7D17368D3F804806F4605E042462146F1
:102074003846A847241A0744002CF7D173685F68D0
:102084001B24084E05E03A4621463046A847241A48
:102094000644002CF7D103B0BDE8F08310BE00085D
:1020A40008C10008ECC00008074B01221A6004E0D4
:1020B4004008054A13685B001360044B9842F7D844
:1020C400034B1860704700BF600C002040420F00B3
:1020D400640C002070B506460D46002405E0315D11
:1020E400044883685B6898470134AC42F7D32846B8
:1020F40070BD00BFA8B80008014B03600020704702
:10210400B0C100082DE9F04182B000AF0446D0F818
:1021140000E0D0F804C085686E468AB06B4613F1BF
:10212400100200F0888014218AB10846042903DDD6
:10213400DFF81C81C3F81480082801DDC3F818E017
:102144000C2801DDC3F81CC0102800DD1D62132912
:1021540074DD14253AB10521397100217971B97101
:10216400F9717868186100216FF300016FF3410180
:102174006FF382016FF3C501012363F38811C5F383
:102184000A0565F353216FF31F5100233148FFF70C
:1021940097FCB546D4F80CC026696569E8468AB050
:1021A4006B4613F110024CD0142182B10846042965
:1021B40003DDDFF8A4E0C3F814E0082801DDC3F868
:1021C40018C00C2800DDDE61102800DD1D62132913
:1021D4003ADD14253AB10521397100217971B971BB
:1021E400F9717868186100216FF300016FF3410100
:1021F4006FF382016FF3C501012666F38811C5F3FD
:102204000A0565F353216FF31F51124D002328462D
:10221400FFF756FCC546E369104A3146284606F0E6
:10222400DBFDA3690E4A3146284606F0D5FD083782
:10223400BD46BDE8F0816FF0004175E76FF01B0506
:1022440088E76FF00041B0E76FF01B05C2E700BFFD
:10225400B0C10008ACBC0008E0C1000810C200080E
:1022640020C2000838B504460D4611B10846FFF7F0
:1022740049FF012C04D02946204603F0B7FF38BD9E
:10228400EFF30583103B034A0121034806F0A4FD44
:10229400F1E700BF50C20008ACBC000830BFFFF734
:1022A400FDBF00BF38B50446054D2A46054909F06F
:1022B40052F9054A0021601909F05BF938BD00BFE5
:1022C4000000000038BD00080400000070B5064698
:1022D400064D074B1D444C1B2046FFF7E3FF083C0B
:1022E400C6F8A84005F1080070BD00BF000000005A
:1022F40004000000054B5A699B689A4204D0044AC2
:10230400536843F080535360704700BF401100206E
:1023140000ED00E081690D4B5A6942F480725A6104
:10232400BFF34F8FBFF36F8F31F8021C5A6922F449
:1023340080725A61BFF34F8FBFF36F8F4DF60273F4
:10234400994201D0002070470120704700ED00E061
:102354004FF0000C83F800C002F07F4CBCF17F4FBB
:1023640014D102F00C0CBCF1080F04D012F0080FC9
:1023740009D00846704708B5054A0121054806F00A
:1023840021FD002008BD01221A707047002070470B
:1023940064C20008ACBC000808B52B4A01212B48D4
:1023A40006F010FD2A4B9B6A13F0007F21D11D20FB
:1023B400274B9B6A13F0807F22D1254B9B6A13F431
:1023C400002F24D1224B9B6A13F4802F26D1204B5B
:1023D4009B6A13F4003F28D11D4B9B6A13F4803F82
:1023E4002AD11B4A936A6FEA03436FEA1343936249
:1023F40008BD184A0121154806F0E4FC1E20D7E761
:10240400154A0121114806F0DDFC1F20D5E7134AC7
:1024140001210E4806F0D6FC2120D3E7104A012101
:102424000A4806F0CFFC2220D1E70E4A01210748D2
:1024340006F0C8FC2320CFE70B4A0121034806F02D
:10244400C1FC2420CDE700BF90C20008ACBC00084A
:1024540000ED00E0A8C20008BCC20008D8C2000811
:10246400F8C2000820C300083CC3000808B50023D4
:102474000B70034A0121034806F0A4FC08BD00BF09
:1024840068C30008ACBC000890B583B000AF0F2946
:1024940023DC2F4C103900233B7102237B718AB05B
:1024A400EC461CF110021AD0122022B1042802DDDD
:1024B400284BCCF8143000233B7002237B70E2B12C
:1024C4000346082801DDCCF818400C2B01DDCCF8BC
:1024D4001C100CF1200300210DE01F4CDAE76FF013
:1024E4000040E2E701F1080404EB070E1EF808ECD3
:1024F40003F801EB01310129F4D9112824DD122359
:102504004AB10421397100217971B9710121F9713C
:102514007868CCF8100000216FF300016FF34101DB
:102524006FF382016FF3C501012060F38811C3F3D7
:102534000A0363F353216FF31F5100230748FFF786
:10254400BFFA0C37BD4690BD6FF01B03D8E700BF40
:102554008CC30008C0C30008A4C30008ACBC0008B6
:10256400F8B505460F461446374A0121374806F0A8
:1025740029FC374B9B6A13F4805F25D11626344B14
:102584009B6A13F4006F26D1314B9B6A13F4007FCE
:1025940028D12F4B9B6A13F4806F3FD12C4B9B6A3D
:1025A40013F4807F41D12A4B9B6A13F4005F43D11B
:1025B400274A936A43F47F4393620121284606F035
:1025C4001DFD20703046F8BD224A01211F4806F047
:1025D400F9FB1726D3E7204A01211C4806F0F2FB39
:1025E4001826D1E71D4A0121184806F0EBFB184ACA
:1025F400936B926A12F4004F01D11926C9E7184A65
:102604000121124806F0E8FB37B1114A936A23F41A
:10261400004393621926BCE71926BAE7114A01213F
:102624000A4806F0CFFB1A26B8E70F4A01210748EB
:1026340006F0C8FB1B26BBE70C4A0121034806F041
:10264400C1FB1C26B4E700BFD4C30008ACBC00081F
:1026540000ED00E0ECC3000800C4000814C4000846
:1026640030C4000848C4000864C400087CC40008DE
:102674002DE9F04104460F461546464A01214648D5
:1026840006F0A0FB454B9B6A13F0100F3CD11026BB
:10269400424B9B6A13F0080F3DD1404B9B6A13F0E9
:1026A400020F3FD16FF015083C4B9B6A13F0010FEA
:1026B40058D13A4B9B6A13F0200F5AD1374B9B6A7F
:1026C40013F0100F04D1354B9B6A13F0020F04D0A2
:1026D400324B5B6813F4006F52D1304B9B6A13F09A
:1026E400200F04D02D4A536A23F4005353622B4A1B
:1026F400936A43F0FF0393620121204606F07EFCB7
:1027040028703046BDE8F081254A0121224806F0B0
:1027140059FB1126BCE7234A01211F4806F052FB4E
:102724001226BAE7204A01211B4806F04BFB1B4B3B
:10273400D3F834809B6A13F0800F03D16FF015082F
:102744001326B1E74346194A0121134806F044FB16
:1027540037B1124A936A23F0800393621326A3E7E6
:102764001326A1E7124A01210B4806F02BFB14267D
:102774009FE7104A0121084806F024FB15269DE72F
:102784002146404600F0C6F90028A6D080F3098807
:102794000226A2E7ACC40008ACBC000800ED00E0CF
:1027A400C4C4000800C40008F8C4000810C5000828
:1027B40028C500087CC4000870B506460D462B4A9F
:1027C40001212B4806F0FEFA00232B70294BDC6A0A
:1027D40014F002040AD1274BDB6A002B0DDB254BD6
:1027E400DC6A14F080440ED1204670BD224A0121D7
:1027F4001F4806F0E7FA0024F6E7204A01211C48A6
:1028040006F0E0FAF0E71E4A0121194806F0DAFA68
:102814003046FFF77FFD98B9164B9B6A13F0FF0F04
:1028240016D1144B9C6A14F47F4418D1114B9B6A43
:10283400B3F5803FD8D33046FFF7AEFD0446D3E767
:102844003368104A01210A4806F0C6FA3468CBE717
:102854002A4601213046FFF70BFF0446C4E72A4607
:1028640001213046FFF77CFE0446BDE748C5000859
:10287400ACBC000800ED00E060C5000884C5000899
:1028840094C50008B4C5000830B58BB01F4B5D6813
:10289400C5F30805002383F31188BFF36F8F0DF18F
:1028A4002603FFF755FD04460DF12702294606F0DD
:1028B400A7FB9DF827300BB10BB030BD05460DF1D9
:1028C400040C20686168A268E368ACE80F00206922
:1028D4006169A269E369ACE80F009DF826304BB149
:1028E400089BC3F308025AB96FEA53236FEA4323E0
:1028F400089305E0089B23F4FF7323F00103089376
:1029040001A92846FFF7AEFCD6E700BF00ED00E0C2
:10291400044B5A6942F010025A615A6922F00802C3
:102924005A61704700ED00E0EFF30880EFF309818E
:1029340001B57246FFF7A8FF01BD00BF0C4880F344
:10294400088800200B490870102080F311880A4879
:102954004FF40461401880F30988EFF314800221D6
:10296400084380F31488BFF36F8F00F095F80000DC
:10297400C02600207F1100200019002008B50A4B52
:102984009B68834202D004F0FBFC08BDEFF305838F
:10299400002BF8D0054B5A6842F080525A605A6AAC
:1029A40022F400425A62EEE74011002000ED00E0FC
:1029B40015498A684FF030001044EFF3098C80E821
:1029C400F01F102080F31288BFF36F8F0F4F4FF06A
:1029D40000664A698A603E60D2F8A8000C4C206008
:1029E400D2F8AC000023C2F8AC3080F3118804B5EF
:1029F400104600F011F9BDE8044002F1300090E8FF
:102A0400F01F8CF3098870474011002004ED00E0AA
:102A1400980C00201EF0040F0CBFEFF30880EFF3B6
:102A24000980816911F8021C0229FFD001B57246A0
:102A340006F0D8FA01BD00BF002807DB00F01F0232
:102A4400400901239340024A42F82030704700BFF6
:102A540000E100E0002808DB0901C9B200F1604090
:102A640000F5614080F80013704700F00F00090181
:102A7400C9B2014B1954704714ED00E0044B23F024
:102A84007F03044A9360BFF34F8FBFF36F8F704788
:102A94000000000800ED00E008B5FFF7EFFF0B4A67
:102AA400D2F8883023F47003C2F88830EFF314832B
:102AB40023F0040383F31488BFF36F8F03F046FD00
:102AC40004F0D8FD00F070F803F09EFD00ED00E086
:102AD40010B4A2F120040E4942F8081C21F00101AF
:102AE40042F8081C42F8203C019B42F81C3C029B23
:102AF40042F8183C039B42F8143C4FF0807342F8B0
:102B0400043C04650023C0F8AC3010BC704700BF1F
:102B1400B1130008104B9B68BBB110F1160F0BD01A
:102B2400D3F89820A2F1400C844510D8824210D9E1
:102B34008A4207D800207047D3F898208A4201D8E7
:102B440000207047D3F89800704700207047002099
:102B540070470020704700BF4011002008B50E46A2
:102B640015460C4A9060D0F8A8200B4B1A6000F070
:102B740053F82C4686F309880020044B98472046D6
:102B8400002100220023024C20470000719000081D
:102B9400B113000840110020980C0020014B1022B2
:102BA4001A61704700ED00E0002206E003F00F0315
:102BB4000949194410230B760132542A0ADC53B212
:102BC400002BF3DB03F1604303F56143102183F829
:102BD4000013F1E7704700BFFCEC00E008B5EFF329
:102BE4000583103B044A02EBC301496852F83300E1
:102BF4008847FFF77FFB08BD48B9000808B5034BB9
:102C0400034A0121034806F04DFB08BD0080012062
:102C140000000020D0C5000808B5D0F89830403B2B
:102C24000448036040234360034B8360012106F0A2
:102C34003DFB08BD9C0C002000000B15084AC2F89F
:102C440098000B6823F01F03034343F01003C2F8FA
:102C54009C308B6843F00103C2F8A030704700BF7A
:102C640000ED00E010B504460A4BD3F89030C3F3EE
:102C74000723013B984203D8FFF7E0FF204610BD2D
:102C84000346054A0121054806F0A6F86FF0150031
:102C9400F5E700BF00ED00E0E0C50008A4BC0008B3
:102CA4002DE9F04780460F469A461646002409E06F
:102CB4002946F0B206F0FFF9064610F1160F1AD0B5
:102CC40001360134BC4216DA04EB440508EB8505F1
:102CD4006A68002AF5D0BAF1000FE9D0284606F058
:102CE400D9F90028E4D12346044A0121044806F016
:102CF40073F86FF015063046BDE8F08708C6000883
:102D0400A4BC000810B5034C01232278FFF7C8FFC8
:102D1400207010BD7E11002008B500230B4A1278E4
:102D2400FFF7BEFF10F1160F0FD0024606E0084B66
:102D3400C3F898200021C3F8A0100132044BD3F843
:102D44009030C3F307239342F1DC08BD7E110020C9
:102D540000ED00E0044B0522C3F89420BFF34F8F2D
:102D6400BFF36F8F704700BF00ED00E0BFF35F8FCC
:102D7400024B0022C3F89420704700BF00ED00E02E
:102D840038B51C4B1D681C4BD3F89030C3F3072394
:102D94009D422BD8FFF7EAFF002409E0154B5B683E
:102DA40004EB440103EB81012046FFF747FF0134A4
:102DB400A542F3D81148057006F09CF910F1160FDE
:102DC40013D00E4B1A780C4BD3F89030C3F307236F
:102DD4009A4207DA084BC3F898200021C3F8A010E0
:102DE4000132F0E7FFF7B6FF002038BD4FF0FF30A7
:102DF400FBE700BF2CC6000800ED00E07E110020B8
:102E040030B587B00D461146002400940194029415
:102E140003940494059402228DF80220044A01923A
:102E2400049005951A46684604F04EFF07B030BD7D
:102E3400B992000808B5024B1B689847002008BDEA
:102E4400A80C0020034B1860034A937843F0020354
:102E540093707047A80C00201000002008B50649A4
:102E640021F00701C1F1005202F5C032034805F018
:102E7400FCFA002008BD00BF573B0020AC0C00202A
:102E840070B50546002401E00134E4B26B78A34236
:102E940015D32B782344DAB201209040084A5269B2
:102EA40030EA0202F0D1064A5061064A52F8336011
:102EB400002EE9D002EBC3035968B047E4E770BDC4
:102EC400003C0140B80C002000B583B000230093FF
:102ED4000193BDF80030442262F30B03ADF80030D7
:102EE4004FF480430193064B9B681B682BB16946E2
:102EF4000348984703B05DF804FB6FF05700F9E707
:102F040048B70008002399420ADD10B400EB030C13
:102F1400044C04F80C2001339942F7DC10BC7047D0
:102F2400704700BF200000205FFA81FC0CF1020210
:102F34000A4B53F822200B0C22EA114193FAA3F313
:102F44004BB1B3FA83F3984001430CF1020C034AEA
:102F540042F82C1070472023F5E700BF00380140E9
:102F6400C3B20233074A52F82320030C02EA10408A
:102F740093FAA3F31BB1B3FA83F3D8407047202329
:102F8400FBE700BF0038014008B5034668B1B0FA5A
:102F940080F2C2F11F02D2B205498856054A11686F
:102FA4000B43136006F051F808BDFF22F4E700BF9D
:102FB40020000020003C0140024A136823EA000379
:102FC40013607047003C0140032926D8DFE801F074
:102FD400020C151E114B9A6822EA00029A60DA6804
:102FE40022EA0002DA6070470C4B9A6802439A6046
:102FF400DA6822EA0002DA607047084BDA680243B2
:10300400DA609A6822EA00029A607047034B9A6871
:1030140002439A60DA681043D8607047003C01406C
:1030240010B498B1B0FA80F3C3F11F03DBB29C462D
:103034000D4850F8330088420AD088B90A4B43F847
:103044003C1003EBCC035A6010BC7047FF23EEE73F
:10305400054C04EBC3035B689342EED10020F3E715
:103064006FF00F00F0E700BFB80C002060B1B0FAB9
:1030740080F3C3F11F03DBB2044A002142F833108A
:1030840002EBC30251607047FF23F5E7B80C002040
:103094000C4B1B6813F0020F09D10A4A136843F062
:1030A40001031360074B1B6813F0020FFAD0054AA3
:1030B400936823F003039360024B9B6813F00C0F97
:1030C400FAD17047003802400C4B1A6842F480224F
:1030D4001A601A6842F480321A60084B1B6813F4B1
:1030E400003FFAD0054A536F43F001035367034B83
:1030F4005B6F13F0020FFAD0704700BF0038024034
:10310400F8B50C461546404B1E680221304606F0C1
:103114004BF907460121304606F046F92388C3F3EC
:103124000B021346442A29D812B2002A64D0013B68
:10313400432B64D8DFE803F03D53565A5D3F49639F
:10314400636363636363636363636363636363634B
:10315400636363636363636363636363636363633B
:1031640063636363636363296363632963636337CB
:1031740063636363636363396363633BA82A01D155
:103184002E6003E06FF085003BE02E602368B3F50A
:10319400805F37D32A68C3F313330133B2FBF3F2EE
:1031A4002A6000202DE02E60F0E72F60EEE7286013
:1031B400ECE72E60EAE700F0ABF804234FF4A872C2
:1031C400082106F0EAF82860E0E700F0A1F80723F8
:1031D4004FF4A872082106F0E0F82860D6E700232F
:1031E4002B60D3E74FF4FA432B60CFE700232B6027
:1031F400CCE7064B2B60C9E76FF0850001E06FF068
:103204008500F8BD0020FCE74801002000127A0088
:1032140010B5184B9B6803F00C03082B22D0154AF9
:10322400136823F080731360124B1B6813F0007F44
:10323400FAD1104C636823F4403343F48033636061
:10324400636823F0706343F0E063636000F064F844
:10325400236843F080732360064B1B6813F0007FE0
:10326400FAD010BDFFF714FF024A936823F0F0036D
:103274009360D4E70038024038B500F071F8204C70
:10328400204606F024F902F0ABFE1E4B9B68C3F304
:1032940003131D4AD35C20FA03F513781C41A5429D
:1032A40026D3FFF711FFFFF7B3FF164A936823F005
:1032B400F0039360936823F0030343F002039360E5
:1032C400104B9B6803F00C03082BF9D1A54213D2D1
:1032D4000E4B0B4A1A600B4A936823F4E05343F4F1
:1032E40080539360936823F460439360002038BD57
:1032F400204602F0E3FED4E7204602F0DFFEE7E7D3
:1033040000BD010500380240D4CE00084801002069
:103314000048704700127A0008B506F0D9F80C4B43
:1033240059680C4A0A4040F4A84141F008010A4394
:103334005A605A6822F4403242F480325A60596822
:10334400054A0A40054901430A435A6008BD00BFC3
:10335400003802400080BFFF0080BFF0085400071F
:1033640082B0064B1A6C42F080521A641B6C03F054
:1033740080530193019B02B0704700BF00380240A4
:1033840010B504460A2806D0E1B2064883685B6893
:103394009847204610BD034883685B680D21984711
:1033A400F2E700BFA8B8000810B5044C2046FFF7A8
:1033B40049FD2046FDF7F4FF10BD00BF853300082A
:1033C40008B5054807F0BDFB18B1FFF7EDFF002075
:1033D40008BD6FF01200FBE7A8B8000808B5436801
:1033E40041B103F10C010B4B9B681B685BB10948AD
:1033F400984708BD03F10C01064B9B685B682BB131
:1034040004489847F5E76FF05700F2E76FF057006C
:10341400EFE700BF48B700082DE9F8430F4616460A
:103424001C46D0F80480D0F81090D8F8080005F0B5
:1034340096FFB6F5001F0FD00546B6F5800F2DD0C8
:10344400B4F1806F26D0B4F1C06F25D0B4F1007F01
:1034540009D06FF015041AE03946D8F8080006F0D0
:1034640060FA002413E002264A460F492846FFF773
:10347400D7FD0446A8B9D8F80810384605F072FFFD
:1034840031462846FFF7A0FD2846FFF77DFD20467C
:10349400BDE8F8830126E7E70326E5E76FF0850436
:1034A400F5E76FF00F04F2E7C395000810B5044682
:1034B40003695860054807F044FB20B104492046DD
:1034C40006F02CF810BD6FF01200FBE748B70008B7
:1034D400C996000808B5024803F030FB08BD00BFD8
:1034E4003000002008B507F029FE0022431819D245
:1034F40013440D4AA2FB03CE2EF0030C0CEB9E0CDE
:10350400A3EB0C03C01A61F100014FF0CC3300FBB4
:1035140003F302FB0133A0FB02021344400840EA18
:10352400C37008BD0122E3E7CDCCCCCC08B507F0CD
:1035340005FE002243181CD213440F4AA2FB03CEFB
:103544002EF0030C0CEB9E0CA3EB0C03C01A61F1E0
:1035540000014FF0CC3300FB03F302FB0133A0FB6B
:1035640002021344400840EAC370044B1B68C01AAB
:1035740008BD0122E0E700BFCDCCCCCCD80D0020A3
:1035840008B5024807F0F5FD08BD00BFC8010020DA
:1035940000B583B0830F8200121843F10003921820
:1035A4005B4100200021CDE90001034804F048FA02
:1035B40003B05DF804FB00BFC801002008B507F0A4
:1035C400BDFD002243181BD213440E4AA2FB03CEB6
:1035D4002EF0030C0CEB9E0CA3EB0C03C01A61F150
:1035E40000014FF0CC3300FB03F302FB0133A0FBDB
:1035F40002021344400840EAC370034B186008BD3C
:103604000122E1E7CDCCCCCCD80D0020014B1868C9
:10361400704700BFD80D002070B5044600F1440582
:103624000223BFF35B8F55E8002F012A03D145E83D
:1036340000310029F7D1BFF35B8F0CBF01260026B0
:103644000ED1084BDB6A984700236360BFF35B8F9E
:1036540055E8002F45E800310029F9D1BFF35B8F0D
:10366400304670BDBCC9000808B50248FFF7D4FF56
:1036740008BD00BFDC0D002010B50B4B5C689B68D7
:1036840023B10A4B5B6B0020984710BD0648FFF737
:10369400C3FF0028F9D0002CF7D06FF004012046B6
:1036A40004F07CFAF1E700BFDC0D0020BCC900087F
:1036B4002DE9F04182B005460C4616469846274946
:1036C4004F68896879B1264B5B6B00209847234883
:1036D4008768C3680193CDF80080334622462946A3
:1036E4000068B84737E01F4B0222BFF35B8F53E8F3
:1036F400001F012903D143E800200028F7D1BFF3BC
:103704005B8F28D1443BDB6C1A78A24200D91C7031
:10371400124CE36C1A782946A06C07F01CFF236D49
:1037240003B11E800D4B5B6D0BB183F800800C4B15
:10373400DB6A9847094B002159604433BFF35B8F20
:1037440053E8002F43E800100028F9D1BFF35B8F42
:10375400384604F023FA02B0BDE8F081DC0D002005
:10376400BCC90008200E002010B505484468FFF7C6
:1037740053FF20B11CB10021204604F00FFA10BD04
:10378400DC0D0020F0B583B000AF04460D460068A0
:1037940007F0D7F950B12946204606F03EF9054610
:1037A400002858D128460C37BD46F0BD2368196857
:1037B4006D4600233B7102237B7188B06C4614F183
:1037C400100211D00E201AB1042801DD504B6361A0
:1037D40000233B7002237B709AB1082800DDA161AD
:1037E40004F11C0300210AE06FF00040EBE701F153
:1037F40008063E4416F8086C03F8016B01310129F0
:10380400F5D90D2824DD0E2342B10321397100219D
:103814007971B9710121F9717868206100216FF320
:1038240000016FF341016FF382016FF3C5010120C1
:1038340060F38811C3F30A0363F353216FF31F5139
:1038440000233448FEF73CF9AD466FF01205A9E7B2
:103854006FF01B03D8E72368D3F800C021796E46C4
:1038640000233B7102237B718AB06C4614F1100271
:1038740019D016201AB1042801DD274B63610023F7
:103884003B7002237B70DAB10346082801DDC4F8DB
:1038940018C00C2B00DDE161102B00DD256204F162
:1038A400240300210AE06FF00040E3E701F1080C73
:1038B400BC441CF808CC03F801CB01310129F5D92B
:1038C400152822DD162342B10521397100217971B1
:1038D400B9710121F9717868206100216FF3000149
:1038E4006FF341016FF382016FF3C501012060F3AF
:1038F4008811C3F30A0363F353216FF31F510023A9
:103904000448FEF7DDF8B5464CE76FF01B03DAE731
:10391400D0C70008D4BC0008ECC7000870B50D4639
:103924000F490120BFF35B8F51E8004F002C03D1F6
:1039340041E80006002EF7D1BFF35B8F0CD1443968
:103944004B60084E736DD4B221469847B36A214642
:1039540028469847002070BD6FF00F00FBE700BFBA
:10396400200E0020BCC9000870B58EB015460AAA06
:103974000A920B9200230C930D93059306930793DD
:10398400089309939DF82130012464F305038DF80D
:1039940021300992224B5B6B002B3ED013462A4602
:1039A400FFF7BCFF041E22DB1E4B5E6A1C49012488
:1039B4000394EDB20295002301938B8F009391F849
:1039C4003A3091F8392091F838102046B04700FA7F
:1039D40004F1C0F34173C200521843F1000392187A
:1039E4005B41214605A804F07DF8041E02DB204655
:1039F4000EB070BD0C4A01210C4805F0E3F90848EB
:103A0400FFF70AFE0028F2D14FF0FF324FF0FF33E8
:103A1400012105A804F066F8E9E76FF01504E6E76C
:103A2400DC0D0020BCC900080CC80008D4BC000888
:103A340030B58DB08DF8072008AA089209920023AA
:103A44000A930B93039304930593069307939DF8AA
:103A54001930012060F305038DF819300792284BC3
:103A6400BFF35B8F53E8002F002A03D143E800041F
:103A7400002CF7D1BFF35B8F3FD1443B00249C6003
:103A840008AA5A6099640DF10702DA64129A1A6559
:103A9400139A5A651B4D6B6DFF2198476B6B20463B
:103AA4009847DDE91023012103A804F01BF8041E44
:103AB40007DB0B9B002B19DB9DF8074020460DB05C
:103AC40030BD1148FFF7A8FD50B94FF0FF324FF059
:103AD400FF33012103A804F005F89DF80740EDE742
:103AE4000A4A03210A4805F06DF9E7E7094A01216A
:103AF400074805F067F90B9CE0E76FF00F04DDE77A
:103B0400200E0020BCC90008DC0D002028C80008D5
:103B1400D4BC000838C8000810B5E9B10846144BF5
:103B24000121BFF35B8F53E8004F002C04D143E81D
:103B3400001CBCF1000FF6D1BFF35B8F15D1443BE1
:103B44009860DA600B4C636DFF2101209847636B2A
:103B540000209847002010BD0748FFF75DFD08B11D
:103B64000020F8E76FF01500F5E76FF00F00F2E7BB
:103B7400200E0020BCC90008DC0D002070B58AB0FE
:103B84000C462A4B0122BFF35B8F53E8001F002928
:103B940003D143E800200028F7D1BFF35B8F42D163
:103BA400234BDB6820689847E37AF3B9204B9D697F
:103BB40001200990237B0893002307930693059320
:103BC400049303930A220292228901920093A37917
:103BD40062792179A847164B9B6D607B98471548FD
:103BE400FFF71AFD00200AB070BD134D206861680C
:103BF400A268E3680FC50E4BDD696379A1794FF4C0
:103C04007A620892227B0792002206920592012092
:103C1400049003922689029601910093237994F9E2
:103C24000A10A847D7E76FF00F00DCE7200E00204A
:103C3400BCC90008DC0D0020100E002010B5084699
:103C440011461A460C4B4FF0010CBFF35B8F53E83F
:103C540000EFBEF1000F03D143E800C4002CF6D1FD
:103C6400BFF35B8F04D1054BDB6B9847002010BD7D
:103C74006FF00F00FBE700BF200E0020BCC9000856
:103C840038B5104A0024BFF35B8F52E8003F42E886
:103C940000410029F9D1BFF35B8FA2F1440342F83C
:103CA400440C094A1A61094A9A61094A1A62094A82
:103CB4005A61094D2A6803F110009047EB6A98474E
:103CC400204638BD200E00206D370008B5360008A8
:103CD4007D3600086D360008BCC9000838B5836815
:103CE40005699C697CB112F4000F06D02D6801238C
:103CF4008B401D4201D082F0C062044B134002F09D
:103D0400B072A04738BD6FF05700FBE740000006D3
:103D140008B5044BC01A0011034B53F8203000209F
:103D2400984708BD640E00204000002000B58BB009
:103D34008DF807000DF10700069001200790089206
:103D4400099306AB04930223059331B104A90848EF
:103D540005F0F7FE0BB05DF804FB06AB02930223FB
:103D6400039302AA04A9024805F0E0FEF2E700BFAB
:103D740028CA000870B5054692FAA2F3B3FA83F391
:103D84000AB94FF0FF331E46002400E00134032C2F
:103D940010D8094B53F83430AB42F7D1064B03EB40
:103DA400C4031B79B342F1D1044800EB041002F0C0
:103DB400C5FEEBE770BD00BF48CA0008640E0020D2
:103DC40010B50A4C01220021204605F098FE0A2075
:103DD400002103F069FA00221146204605F08FFE07
:103DE4003C20002103F060FA10BD00BF88B8000831
:103DF4002DE9F04182B000AF804600245EE0484BDC
:103E040053F8343019686D4600233B7102237B71EB
:103E140088B06C4614F110021BD00E201AB104288D
:103E240001DD404B636100233B7002237B709AB138
:103E3400082800DDA16104F11C03002101290BD82D
:103E440001F108063E4416F8086C03F8016B0131D1
:103E5400F4E76FF00040E1E70D2825DD0E2342B1C1
:103E64000321397100217971B9710121F9717868DF
:103E7400206100216FF300016FF341016FF38201B0
:103E84006FF3C501012060F38811C3F30A0363F3E0
:103E940053216FF31F5100232348FDF711FEAD4654
:103EA4000837BD46BDE8F0816FF01B03D7E71F4A12
:103EB40001211D4804F086FFF2E70134032CEFD8FA
:103EC40058F82430002BF8D0154B53F8340006F082
:103ED40038FE002893D01649164800EB041006F06B
:103EE400E8FE0F4E06EBC4054FF48031284605F07A
:103EF400CFFD04EB4403104901EB83012A7901232C
:103F040093400E4A4A608B6056F8340005F004FE74
:103F14000028CCDB4FF0B861284605F089FDCCE7DA
:103F240048CA000858C80008CCBC000870C800087B
:103F3400153D0008640E0020340E0020793D000871
:103F440010B50446C0B205F025FE002800DB10BD04
:103F54002346034A0121034804F03EFFF7E700BF6C
:103F640090C80008CCBC0008F0B583B004462A48C9
:103F740005F0FDFD48B14FF4D0112848FFF702FCCD
:103F8400054650B1284603B0F0BD254A0121254815
:103F940004F018FF6FF01205F4E74FF47A76002767
:103FA4003046394603F080F9002211461E4805F0D8
:103FB400A6FD3046394603F077F901220DF10701D9
:103FC400422005F0E7FD002816DB9DF80730174A6C
:103FD4000321144804F000FF05F0C7FD002813DB9B
:103FE4002046FFF74DFE041ECCDA114A01210D488C
:103FF40004F0E8FE2546C5E70E4A0121094804F00D
:10400400E1FE6FF00405BDE70B4A0121054804F009
:10401400D9FE6FF00405B5E728CA000840CA0008B5
:10402400B0C80008CCBC000888B80008E4C8000880
:104034001CC90008C8C8000800C9000810B5044617
:10404400C0B205F0AEFD002800DB10BD2346034AD4
:104054000121034804F0C0FEF7E700BF40C900088F
:10406400CCBC000830B583B0054600238DF807307A
:104074008DF8063001220DF106015A2005F08AFD63
:10408400002829DB9DF8064004F0F8048DF806406A
:104094000E224FF0FF31284605F05DFD44F0040484
:1040A4008DF8064001309DF8073000F00F000343FF
:1040B4008DF8073001220DF10701092005F071FD8B
:1040C40000280FDB01220DF106015A2005F069FDDD
:1040D40000280DDB03B030BD084A0121084804F074
:1040E40071FEF7E7074A0121054804F06BFEF1E78A
:1040F400054A0121024804F065FEEBE760C90008A7
:10410400CCBC000878C9000894C9000808B503218C
:10411400044805F0D4FC002801DC002008BD01207F
:10412400FCE700BF68B80008094B1A68536901E04E
:104134001A465B69516939B11968D0F800C08C45D9
:10414400F6D8506143617047506100234361704762
:10415400A40E0020054B1B6800E05B691BB1834281
:10416400FBD1012070470020704700BFA40E00203F
:1041740008B5054B1B680BB100225A724361024B10
:10418400186005F022FD08BDA40E002010B582B011
:10419400044601A805F00AFCF4B12046FFF7DAFF53
:1041A400D0B9636823600123237200236372114B27
:1041B4001B68ABB1FFF7BAF92368184420600D4BB4
:1041C4001B681B68984211D22046FFF7D1FF01A853
:1041D40005F0F5FB02B010BD01A805F0F0FBF9E70E
:1041E400FFF7ECF92046FFF7C3FFF0E72046FFF79F
:1041F4009BFFECE7A40E002070B5FFF707FA054615
:10420400FFF7DCF9A0EB050C1C4B1E686EB13246BF
:1042140002E0002119605269536933B1196861459C
:10422400F7D92C1A21441960F5E746B17269134B8A
:104234001A6000233372F368A3B1306998470F4BB7
:104244001B688BB11C68FFF771F984420CD20B4ACE
:1042540013685969116000221A72DA681AB1186970
:104264009047ECE7FEE7FEE7044B186808B1437A91
:1042740003B170BD05F0A9FCFBE700BFA40E00204C
:1042840010B582B0044601A805F090FB1B4B1A68D8
:104294005AB154B100232372A2420AD013462BB35D
:1042A400A34220D01A465B69F9E701A805F087FB11
:1042B4001FE0537A73B100235372506920B10F4B3E
:1042C400186005F082FC11E0FFF75AF90B4B00224D
:1042D4001A600BE0536913B1084A136006E0074BF8
:1042E40000221A6002E05B692BB1536101A805F05A
:1042F40066FB02B010BD00235361F7E7A40E002053
:104304000849A1FB0032120B43F6095303FB1200C8
:1043140041F6846303EB0023A1FB03131B0B03EBA4
:104324000220704783DE1B43002308E0FEE7114BA5
:1043340003EBC103187910BC70470133DBB2142BB3
:1043440017D819460B4A52F833208242F5D810B4D4
:104354005A1C084C54F832208242E8D80133DBB2AC
:10436400142BE3D81946034A52F833208242F5D875
:10437400EEE7FEE768CA0008012806D0022806D046
:1043840008B100207047034870470348704703484A
:10439400704700BF48E8010090D0030020A1070047
:1043A400064B93F8E1303BB9044B93F80C311BB93D
:1043B400024B012283F80C21704700BFF00E00204D
:1043C400014B93F8E0007047F00E002038B5054625
:1043D400FFF796FF0446094BC3F8E450C0F30741C6
:1043E400062005F0E7FCC4F30721072005F0E2FCF2
:1043F400E1B2082005F0DEFC38BD00BFF00E00205D
:1044040008B5144B93F8E130012B00D008BD1220FD
:1044140005F0DCFC10F0010F0DD00521122005F091
:10442400C9FC0D4B1B68002BF0D09B69002BEDD011
:1044340001209847EAE70421122005F0BBFC064B53
:104444001B68002BE2D09B69002BDFD0002098472B
:10445400DCE700BFF00E00203411002038B53A4BE1
:1044640093F8E030012B02D0022B51D038BD364BEB
:1044740093F8E130C3B1012BF8D1334B93F82F31CA
:10448400002BF3D00221122005F094FC2F4B1B6863
:10449400002BEBD05C69002CE8D01C2005F096FCC6
:1044A40000F03F00A047E1E7274B9B6E5BB3264B30
:1044B40093F80C31002BD9D0234B93F80D31002BFA
:1044C400D4D12348FFF7DCFE1F4C012384F80D31BF
:1044D400112005F07BFC43085B4284F80E311B205D
:1044E40005F074FC05021C2005F070FC284305F05F
:1044F400B6FBC4F810010C2005F068FCC0F34710AB
:1045040084F81401B2E7104B012283F80C21CEE7A2
:104514000D4B93F8E130012BA8D10B4B93F82F31BD
:10452400002BA3D00221122005F044FC074B1B688A
:10453400002B9BD05C69002C98D01C2005F046FC15
:1045440000F03F00A04791E7F00E00203411002056
:10455400A80E002008B54B4B93F8E030012B02D095
:10456400022B62D008BD474B93F8E130CBB1012B4D
:10457400F8D1FFF7CBFD0028F4D04348FFF780FEC5
:104584008021122005F016FC3E4B002283F8E02027
:104594003E4B1B68002BE5D0DB68002BE2D098472C
:1045A400E0E7FFF7B3FD0028DCD03948FFF768FEE9
:1045B400344BB3F816315BB9324BB3F818313BB90D
:1045C400304B93F8FE30EBB90121324805F0B2FBD1
:1045D4002C4BB3F81611B3F81821881A93F81A3132
:1045E400984216DB591EC9B22B48104405F0A2FBB1
:1045F400244AB2F8183192F81A110B44013BA2F87C
:104604001831AFE7322005F0E1FB1E4BA3F8160189
:10461400DEE7891AC9B22048104405F08BFB194B18
:10462400B3F81621A3F818219CE7164B93F8E13050
:10463400002B97D1FFF76AFD012893D0114BB3F8F3
:104644001601B3F81821A0EB020C93F81B118C454A
:104654000CDD1148104405F074FB0A4BB3F8182123
:1046640093F81B110A44A3F818217BE7811AC9B2F5
:104674000948104405F065FB024BB3F81621A3F872
:1046840018216FE7F00E0020C00E00203411002026
:10469400A80E0020061000203410002010B582B0AF
:1046A40000238DF80730A34B93F8E030012B04D09E
:1046B400022B00F0228102B010BD9E4B93F8E13032
:1046C40043B3012BF7D14021122005F073FB1220D4
:1046D40005F07CFB8DF807009DF8073013F0200FE0
:1046E40000F0BD802021122005F064FB914B93F86B
:1046F40032311BB98F4B002283F8E0208E48FFF73C
:10470400BFFD8E4B1B68002BD5D01B69002BD2D06C
:104714009847D0E7874B93F800310BBB854BB3F830
:10472400161100295ED1B3F81831002B5AD1814BF0
:1047340093F8FE30002B4ED10121814805F0FAFA9E
:104744007C4CB4F81831B4F81611C91AC9B27D48B2
:10475400184405F0EFFAB4F81631A4F818314EE015
:104764003F2005F033FB8DF807009DF8073013F068
:10477400020FD3D10B213E2005F01CFB10213F205A
:1047840005F018FB6C48FFF77BFD6A4B93F8023188
:10479400BBB96D48FFF774FD664B002283F8E02037
:1047A400664B1B6813B11B6903B19847614B002228
:1047B40083F80C2183F80D21A3F81821A3F81621FE
:1047C40079E70D2005F002FB40F04001C9B20D204D
:1047D40005F0F0FAE4E7322005F0F8FA554BA3F8B7
:1047E4001601ADE7534CB4F81831C91AC9B255488B
:1047F400184405F09FFAB4F81631A4F818314E485D
:10480400FFF73EFD4B4B93F80231F3B9494B0022BD
:1048140083F8E0204C48FFF733FD484B1B684BB14D
:104824009C683CB14349002391F90E21B1F816115B
:104834004448A0473F4B002283F80C2183F80D2104
:10484400A3F81821A3F8162135E70D2005F0BEFAC8
:1048540040F04001C9B20D2005F0ACFADDE71920A3
:1048640005F0B4FA43B202339B10324C84F83C3165
:104874001A2005F0ABFA03B294F93C21002A33DB89
:1048840000EB23108B382B4BA3F83E01132005F0CB
:104894009DFA284C84F84001102005F097FA01464F
:1048A4000D2005F087FA94F84011264805F042FAE5
:1048B40094F8323113B9002284F8E0201E48FFF73F
:1048C400DFFC1E4B1B68002B3FF4F5AE9C68002CEC
:1048D4003FF4F1AE174991F93C31B1F93E2191F819
:1048E40040111848A047E6E600EB231392B212FAEF
:1048F40083F38B3BA4F83E31C8E71448FFF7C0FCB0
:104904000C4B93F8E130012B0ED00A4B002283F8B4
:10491400E0200A4B1B68002B3FF4CDAE1B68002B34
:104924003FF4C9AE9847C6E60821122005F042FAC2
:10493400EBE700BFF00E0020C00E00203411002071
:104944000610002034100020A80E0020D80E0020ED
:1049540008B50A48FFF794FC0948FFF791FC094899
:10496400FFF78EFC002005F03DFA002005F010F959
:10497400054B002283F8E02008BD00BFC00E0020D4
:10498400D80E0020A80E0020F00E002008B508481C
:10499400FFF776FC0748FFF773FC0748FFF770FC46
:1049A400012005F01FFA054B002283F8E02008BD22
:1049B400C00E0020D80E0020A80E0020F00E00200B
:1049C40010B504462948FFF75BFC2146284805F04A
:1049D4001BF9284B93F8E13063B1012B23D0254B0D
:1049E400022283F8E0202248FFF7D0FB032005F0E1
:1049F400F9F910BD402005F0E9F900F00301402069
:104A040005F0D8F9412005F0E1F900F03E0141201C
:104A140005F0D0F9352005F0D9F900F03F00154B29
:104A240083F81A01DBE7134B93F82F3173B1F521A7
:104A3400112005F0BFF9402005F0C8F900F033015A
:104A440041F04001402005F0B5F9C8E7F7211120F5
:104A540005F0B0F9402005F0B9F900F03F0141F04C
:104A64004001402005F0A6F9B9E700BFC00E0020C0
:104A7400D80E0020F00E002030B583B004468DF827
:104A84000710434B93F8E13033B1012B3AD00020A7
:104A9400FFF796FF03B030BD3D4B0022A3F8182169
:104AA4009DF80710A3F8161193F8FE30EBB9012115
:104AB4000DF1070005F045F99DF80720531EDBB200
:104AC4003F2B16D8324B83F81B21314D95F81B111F
:104AD400204605F036F9B5F8183195F81B21134432
:104AE400A5F81831D5F80401D2E7322005F062F9AF
:104AF400E2E72146274805F05DF8254B202283F89C
:104B04001B21E2E7224B93F8313153B3332005F0F4
:104B14005DF900F0BE01332005F04CF919213B206A
:104B240005F048F99DF80710194B83F8401122202D
:104B340005F040F900210E2005F03CF900210D207C
:104B440005F038F9012005F041F930F0F80319D0E7
:104B54009DF80710204605F0F4F80D4BD3F8340106
:104B640096E7332005F032F920F0410141F00101CC
:104B740001F0BF01332005F01DF91D213B2005F094
:104B840019F9CFE7FFF702FF012005F064F8DFE72A
:104B9400F00E00203410002070B504465848FFF78A
:104BA4006FFB584B93F8E130B3B1012B3FD0002693
:104BB400544B012283F8E020002C40F08280514BBA
:104BC40093F8E130002B00F08580002E00F09380F4
:104BD400052005F007F970BD4A4D95F802614020A3
:104BE40005F0F4F800F0030141F00C01402005F059
:104BF400E1F8412005F0EAF860F03E01C9B2412035
:104C040005F0D8F8352005F0E1F800F03F0085F80C
:104C14001A011E210D2005F0CDF8002385F80C3172
:104C240085F80D31A5F81831A5F81631C0E7354BD4
:104C340093F831313BB3332005F0C8F840F041011B
:104C4400C9B2332005F0B6F819213B2005F0B2F8BB
:104C54002C4B93F8326193F82F312BB31D21112083
:104C640005F0A8F8402005F0B1F800F03301402029
:104C740005F0A0F800210F2005F09CF800210D207C
:104C840005F098F894E7332005F0A0F820F04101EE
:104C940041F0010101F0BF01332005F08BF81D2123
:104CA4003B2005F087F8D3E71F21112005F082F897
:104CB400402005F08BF800F03F01402005F07AF821
:104CC400D8E7114D2146284604F09EFF2846FFF7F9
:104CD4005DFA74E7052005F085F8002E7FF47BAFBC
:104CE4000A4C084BD3F80811204604F08DFF2046E7
:104CF400FFF74CFA6FE7062005F074F86BE700BF86
:104D0400D80E0020F00E0020C00E0020A80E0020B7
:104D140010B50446012005F059F810F0800F21D198
:104D24001D4B002283F8E1201B4B93F8E130A34292
:104D340017D0194B83F8E140012C18D0002005F05E
:104D440051F8012005F042F800F07F01012005F040
:104D540031F80021402005F02DF83021412005F0E4
:104D640029F810BD0C4B012283F8E120DCE7002078
:104D740005F038F8012005F029F860F07F01C9B288
:104D8400012005F017F80021402005F013F8002158
:104D9400412005F00FF8E4E7F00E002038B5184B79
:104DA4001860184C2146184804F025FF214617487E
:104DB40004F021FF2146164804F01DFFFFF700F818
:104DC400002005F00FF81348FFF712F800240CE058
:104DD400114A04EB4403D518D05CFFF799FFA97876
:104DE400687804F0E7FF0134E4B2102CF0D9002015
:104DF400FFF78EFF094B002283F8E02038BD00BF87
:104E040034110020AD530008D80E0020C00E00203D
:104E1400A80E00204000002018CB0008F00E00204F
:104E24002DE9F04F85B006460C4615460193BDF8B2
:104E34003C90BDF840A09DF844809DF848B09DF892
:104E44004C709DF8583002939DF85C300393FFF743
:104E54005FFFFFF79BFD26B1012E6DD005B0BDE8C5
:104E6400F08F8B4BC3F8F040C3F8F8500E9AC3F898
:104E7400F42083F8FE8083F8FFB083F80071029A6F
:104E840083F80121039A83F80221A3F8FC904FF4DC
:104E9400FA5202FB0AF2B2FBF5F2C3F808217D4B89
:104EA400B3FBF5F5C5F30721022004F083FFE9B253
:104EB400032004F07FFF2046FFF736FA0146122054
:104EC40004F078FF0E98FFF72FFA0146132004F040
:104ED40071FF4FEA1921252004F06CFF5FFA89F174
:104EE400262004F067FFB8F1000F1DD05946322088
:104EF40004F060FF302004F069FF00F06F01B8F1A6
:104F0400000F16D00023194341EA0711C9B230201B
:104F140004F050FF312004F059FF40F04001C9B2C1
:104F2400312004F047FF99E7FF21322004F042FFCB
:104F3400E0E76FF07F03E6E7554BC3F82041C3F881
:104F44002451019A83F82921A3F82A9183F82C810A
:104F540083F82DB183F82E719DF8502083F82F210A
:104F64009DF8542083F83021029A83F83121039A62
:104F740083F832210C2D03D8052D02D8062500E034
:104F84000C251CB9A5F10B03012B55D9012C51D0CB
:104F94003F4B002283F828211D2004F017FFA301B2
:104FA400DBB2019AD200D2B213434FEA8802D2B2E2
:104FB40013437F00FFB23B43354A92F8281119434B
:104FC4001D2004F0F7FE1E2004F000FF00F00C008A
:104FD4002B01DBB21843CAF3012101431E2004F064
:104FE400E9FE5FFA8AF11F2004F0E4FE4FEA19217A
:104FF400202004F0DFFE5FFA89F1212004F0DAFEBC
:10500400B8F1000F1DD1224B93F82F31F3B9062DBF
:105014002CD0312004F0DAFE20F0070141F0030126
:1050240001F0FB01312004F0C5FE0A21372004F011
:10503400C1FE13E70C2DABD1154B012283F82821B7
:10504400AAE75946222004F0B5FEDCE74B2004F021
:10505400BDFE60F07F01C9B24B2004F0ABFE0C4BE7
:1050640093F83011242004F0A5FED0E7312004F099
:10507400ADFE20F0070141F0050101F0FD013120F2
:1050840004F098FE0C21372004F094FEE6E600BFFD
:10509400F00E00200048E8012DE9F04F83B00546EA
:1050A400009101921C469DF83490BDF838809DF81B
:1050B4003C709DF840609DF844A09DF84CB0FFF70B
:1050C40027FEFFF763FC0098FEF7CCFF25B1012D06
:1050D40057D003B0BDE8F08F794B009A83F8E820ED
:1050E4000198C3F8EC00C3F8F0400C9AC3F8F82018
:1050F400A3F8FC8083F8FE7083F8006183F801B1A3
:10510400149AC3F80421FFF7FBF80446C0F30721FF
:10511400042004F04FFEE1B2052004F04BFE694C7C
:105124000C9BB4FBF3F4C4F30721022004F042FE09
:10513400E1B2032004F03EFE4FEA1821252004F0DA
:1051440039FE5FFA88F1262004F034FE302004F0A2
:105154003DFE00F06F018FB10023194341EA0611AF
:10516400C9B2302004F026FE312004F02FFE40F0B6
:105174004001C9B2312004F01DFEAAE76FF07F039D
:10518400EBE74F4B009A83F81C21C3F820410C9A9B
:10519400C3F8242183F82991A3F82A8183F82C7178
:1051A40083F82FA19DF8482083F8302183F82E61DD
:1051B40083F831B1149AC3F834210C9B0C2B04D816
:1051C400052B04D806230C9301E00C230C931CB983
:1051D4000C9B0B3B012B4DD9012C48D0384B0022A2
:1051E40083F82821BAF1000F49D11D2004F0EEFD07
:1051F400A301DBB24FEAC9095FFA89F943EA09035B
:10520400BF00FFB23B437600F6B233432C4A92F818
:10521400281119431D2004F0CDFD1E2004F0D6FDF5
:1052240000F00F010C9B1B01DBB219431E2004F09C
:10523400C1FD4FEA1821202004F0BCFD5FFA88F17B
:10524400212004F0B7FD0C9B062B28D0312004F05C
:10525400BDFD20F0070141F0030101F0FB01312005
:1052640004F0A8FD0A21372004F0A4FD31E70C9BCB
:105274000C2BB3D1124B012283F82821B2E74B2027
:1052840004F0A4FD60F07F01C9B24B2004F092FD4C
:105294000B4B93F83011242004F08CFDA5E731204A
:1052A40004F094FD20F0070141F0050101F0FD0137
:1052B400312004F07FFD0C21372004F07BFD08E74A
:1052C400F00E00200048E80130B58BB00D464FF4D5
:1052D4007A7303FB02F4FFF779F80894002007902F
:1052E40006900590049003900523029301904FF4D7
:1052F40096530093034602462946FFF7CDFE31201C
:1053040004F064FD00F0BF01312004F053FDF021EE
:10531400402004F04FFDA021412004F04BFD084D36
:105324002146284604F070FC064B022283F8E02054
:105334002846FEF72BFF032004F054FD0BB030BDCC
:10534400D80E0020F00E002038B504460D46FFF7B5
:10535400DFFC14B1012C0AD038BD074B93F8FE30A2
:10536400002BF9D12946322004F024FDF4E7294624
:10537400232004F01FFDEFE7F00E002010B50446D3
:105384000120FFF7C5FC074B83F8384124B13421D1
:10539400392004F00FFD10BD1221392004F00AFD5C
:1053A400F9E700BFF00E002038B5324B93F8E03037
:1053B400012B02D0022B33D038BD2E4B93F8E130B1
:1053C40043B12D4B1B68002BF6D0DB68002BF3D0C8
:1053D4009847F1E7274C84F80C3184F80D31A4F890
:1053E4001831A4F816310B213E2004F0E3FC1021FF
:1053F4003F2004F0DFFC94F802314BB10D2004F09F
:10540400E5FC40F04001C9B20D2004F0D3FCD8E71C
:10541400184B002283F8E0201848FEF731FFD0E74C
:10542400FEF7CEFC002004F0DDFC00240CE0144A5E
:1054340004EB4403D518D05CFFF76AFCA9786878BC
:1054440004F0B8FC0134E4B2102CF0D90020FFF7CA
:105454005FFC084C94F83801FFF790FF002384F8B0
:10546400E030054B1B68002BA6D05B68002BA3D053
:105474009847A1E7F00E002034110020A80E002068
:1054840018CB0008B0F5887F17D2F8B504460D464E
:10549400164603090A4A52F823705FB1384605F0EC
:1054A40050FB38B133462A4604F00F01384604F065
:1054B40050FAF8BD6FF01200FBE76FF0150070476B
:1054C4004CCB000810B50446B2F5004F2FD04FF076
:1054D400000C48184CEB0C0C40184CF1000C4FEA33
:1054E400CC0C4CEA507CC00040184FEA83024FEACF
:1054F40093734CF10001FAF74BFE2449A1FB0023FE
:105504005B091A0192B24FF0640C0CFB13031B01EC
:105514003233A1FB0313C3F34F1303F0F0010A4426
:1055240092B203F00F0313449BB2A36010BD4FF07B
:10553400000C48184CEB0C02401842F10002D20057
:1055440042EA5072C000401842F10001DA184CEBF4
:105554000C03FAF71DFE0D49A1FB00235B091A0198
:1055640092B24FF0640C0CFB1303DB003233A1FB4B
:105574000313C3F34F13590001F4F8710A4492B2B0
:1055840003F0070313449BB2A360CFE71F85EB51DD
:1055940008B5024A04F084FD08BD00BF13A1000849
:1055A40008B5024A04F096FD08BD00BF19A1000821
:1055B40030B583B00C4643681D6802691068D96829
:1055C4008368DB687BB101AA984700280BDBEB6892
:1055D40023F40043EB602346002201992846FFF799
:1055E40071FF03B030BD034A0121034803F0EAFB15
:1055F400F7E700BFA8CB0008DCBC00082DE9F041A8
:105604000C4643681D6803695E680B79012B54D00E
:10561400022B55D14FF480676279012A55D0022AB2
:1056240055D0002A4ED04FF4005194F806E0BEF154
:10563400040F4FD0002B50D14FF00008A3F1030CFE
:105644005FFA8CFCBCF1010F57D913B1BEF1040F02
:1056540056D0B1F5805F45D0B1F5405F44D0002904
:105664003ED003239A424ED1B8F1000F3ED1002F11
:1056740041D103239E4549D1E37963B1012B48D13C
:10568400274B9D4207D0A3F54C439D4203D003F51D
:1056940050439D4240D1EB6823F40053EB60214614
:1056A40004F087FDEB6843F40053EB6094E80300D7
:1056B40086E803000020BDE8F0814FF4C067ABE743
:1056C4000027A9E74FF48051AFE70021ADE74FF47D
:1056D4004051AAE74FF48058B0E74FF48058ADE743
:1056E4000123BFE70023BDE70223BBE70FB904236F
:1056F400C0E70323BEE70223BCE76FF08500DAE7C7
:105704006FF08500D7E76FF08500D4E76FF0850070
:10571400D1E76FF08500CEE76FF08500CBE700BFDF
:105724000010014038B5456804690F48206005F051
:1057340008FA48B12068E96883681B6863B1984730
:10574400044658B9204638BD084A0121084803F0E8
:1057540039FB6FF01204F5E76FF05704054A012195
:10576400034803F02FFBEDE748B70008D8CB000847
:10577400DCBC0008F8CB0008F8B505464668346878
:1057840003695F68E36823F40053E360706805F01D
:10579400D8F9F8B1B168706804F02FFC04F10C0377
:1057A40053E8003F43F00C0304F10C0141E80032DC
:1057B400002AF3D13946284604F0FBFC337D1BB1A3
:1057C400636943F008036361E36843F40053E360EF
:1057D4000020F8BD034A0121034803F0F3FA6FF0F7
:1057E4001200F6E718CC0008DCBC000838B5054602
:1057F400002104F023FE04460021284604F02BFE79
:10580400844238BF04464FF4FA5303FB04F128469C
:1058140050F8283B1B68B1FBF3F1C8318B0F8A00A9
:10582400521843F1000392185B4101F069F808B97A
:10583400286C38BD034A0121034803F0C3FA6FF012
:105844007300F6E7F8CC0008B4BC00082DE9F04179
:105854008AB000AF0D461646D0F804E0D0F81080A8
:1058640007F10804DFF874C2BCE80F000FC49CE819
:105874000F0084E80F00DEF80040D8F80030AB4297
:1058840024D0AB88C3F34512082A02D0102A40F072
:10589400218113F4004F2DD1636823F0100363605A
:1058A400DEF810108E4B9B68DB6843B33A1D8C48BE
:1058B4009847002823DB01231846082B27D87A6849
:1058C400DA402968914222D20133F5E7AB8813F418
:1058D400006F06D03EB1236823F4444343F44043AD
:1058E40023600020CBE0236823F4444343F40043C3
:1058F4002360F6E7636843F010036360D0E7794AF6
:105904000121794803F05EFA6FF00400B7E008283B
:105914002CD8226822F040022260013B07F12802C1
:1059240002EB830353F8203C226822F0380213432D
:105934002360AB8813F0020F62D0236843F00203A4
:105944002360AB8813F0040F5FD0236843F0010396
:105954002360AB8813F4006F63D0002E5AD0236801
:1059640023F4444343F4404323605EE0D5F800C08D
:1059740078684608000A6D468AB06B4613F1100237
:1059840038D0142182B10C46042903DDDFF85CE130
:10599400C3F814E0082C01DDC3F818C00C2C00DD9A
:1059A400DE61102C00DD1862132926DD14243AB1BF
:1059B4000521397000217970B970F970386818615F
:1059C40000216FF300016FF341016FF382016FF364
:1059D400C501012363F38811C4F30A0464F353215A
:1059E4006FF31F5100234048FCF76AF8AD466FF08F
:1059F400150044E06FF00041C4E76FF01B04D6E7E4
:105A0400236823F0020323609BE7236823F0010348
:105A140023609EE7236823F4444343F40043236054
:105A240003E0236823F444432360AB8813F0100F8E
:105A340029D0236843F080032360236823F40053B0
:105A44002360AB6823B3236843F400732360636863
:105A540023F004036360AB8813F0010F30D0236894
:105A640023F482732360AB88C3F34513082B2CD033
:105A7400236843F400632360C8F8005000202837EB
:105A8400BD46BDE8F081236823F080032360D4E79A
:105A9400AB8813F0010F08D0236823F4007323604C
:105AA400636823F004036360D5E7236823F4007379
:105AB40043F480232360636843F004036360CAE70C
:105AC400236843F482732360CDE7236823F40063DF
